:020000040800F2
:1000000060060020B10100084D0400080F0400083C
:10001000490400086B020008C10500080000000048
:100020000000000000000000000000007104000853
:10003000C1020008000000004F0400085D05000830
:10004000CB010008CB010008CB010008CB01000860
:10005000CB010008CB010008CB010008CB01000850
:10006000CB010008CB010008CB010008CB01000840
:10007000CB010008CB010008CB010008CB01000830
:10008000CB010008CB010008CB010008CB01000820
:10009000CB010008CB010008CB010008CB01000810
:1000A000CB010008CB010008CB010008CB01000800
:1000B000CB010008CB010008CB010008CB010008F0
:1000C000CB010008CB010008CB010008CB010008E0
:1000D000CB010008CB010008CB010008CB010008D0
:1000E000CB010008CB010008CB010008CB010008C0
:1000F000CB010008CB010008CB010008CB010008B0
:10010000CB010008CB010008CB010008CB0100089F
:10011000CB010008CB010008CB010008CB0100088F
:10012000CB010008CB010008CB010008CB0100087F
:1001300000F002F800F02CF80AA090E8000C8244CD
:100140008344AAF10107DA4501D100F021F8AFF2AA
:10015000090EBAE80F0013F0010F18BFFB1A43F0A5
:1001600001031847BC050000CC0500000023002453
:1001700000250026103A28BF78C1FBD8520728BFB7
:1001800030C148BF0B6070471FB51FBD10B510BD13
:1001900000F031F81146FFF7F7FF00F0B9FA00F070
:1001A0004FF803B4FFF7F2FF03BC00F057F800006C
:1001B0000948804709480047FEE7FEE7FEE7FEE7FB
:1001C000FEE7FEE7FEE7FEE7FEE7FEE70448054937
:1001D000054A064B70470000610500083101000820
:1001E0006000002060060020600200206002002005
:1001F000704770477047754600F02CF8AE46050012
:100200006946534620F00700854618B020B5FFF731
:10021000DDFFBDE820404FF000064FF000074FF033
:1002200000084FF0000B21F00701AC46ACE8C00914
:10023000ACE8C009ACE8C009ACE8C0098D4670471D
:1002400010B50446AFF300802046BDE81040FFF72C
:10025000A8BF000000487047000000200149182096
:10026000ABBEFEE726000200704700BFFEE70000BD
:1002700008B50121442000F0EBF81C20ADF8000087
:1002800048208DF8030003208DF8020069460A48D3
:1002900000F017F80120ADF8000028208DF80300C9
:1002A00003208DF802006946044800F00AF8012195
:1002B000024800F0A3F808BD001801400008014002
:1002C00070472DE9F041024600250026002000235A
:1002D0000024002791F803C00CF00F0591F803C02B
:1002E0000CF0100CBCF1000F03D091F802C04CEAE6
:1002F000050591F800C0BCF1000F31D01468002052
:100300002BE04FF0010C0CFA00F3B1F800C00CEA3E
:1003100003069E4220D183004FF00F0C0CFA03F726
:10032000BC4305FA03FC4CEA040491F803C0BCF199
:10033000280F06D14FF0010C0CFA00FCC2F814C0D3
:100340000AE091F803C0BCF1480F05D14FF0010C51
:100350000CFA00FCC2F810C0401C0828D1D314606D
:10036000B1F800C0BCF1FF0F34DD546800202EE06E
:1003700000F1080C4FF0010808FA0CF3B1F800C0C6
:100380000CEA03069E4221D183004FF00F0C0CFAB9
:1003900003F7BC4305FA03FC4CEA040491F803C0DC
:1003A000BCF1280F05D100F1080C08FA0CF8C2F8CE
:1003B000148091F803C0BCF1480F07D100F1080C7C
:1003C0004FF0010808FA0CF8C2F81080401C082809
:1003D000CED35460BDE8F0810246002093680B4004
:1003E0000BB1012000E00020704702460020D368D6
:1003F0000B400BB1012000E00020704741617047C5
:10040000016170470AB1016100E04161704700BFBE
:10041000FEE7000008B50121102000F019F8FF20C8
:10042000ADF8000010208DF8030003208DF80200C5
:1004300069460448FFF745FF4FF6FF710148FFF793
:10044000DFFF08BD0010014000BFFEE770477047A6
:1004500029B1064A92690243044B9A6104E0034AB7
:1004600092698243014B9A6170470000001002407C
:10047000704710B500F002F810BD00000CB5002068
:10048000019000903348006840F4803031490860A2
:1004900000BF3048006800F4003000900198401C14
:1004A0000190009818B90198B0F5A06FF1D12948D2
:1004B000006800F4003010B10120009001E000203D
:1004C00000900098012843D12348006840F01000B4
:1004D000214908600846006820F0030008600846CB
:1004E000006840F0020008601A48406819494860F6
:1004F0000846406848600846406840F480604860AC
:100500000846406820F47C1048600846406840F483
:10051000E81048600846006840F08070086000BF3E
:100520000C48006800F000700028F9D009484068C5
:1005300020F00300074948600846406840F0020088
:10054000486000BF0348406800F00C000828F9D15B
:100550000CBD000000100240002002407047000067
:1005600010B51348006840F00100114908600846C2
:100570004068104908400E494860084600680E4926
:1005800008400B4908600846006820F48020086095
:100590000846406820F4FE0048604FF41F00886061
:1005A000FFF767FF4FF000600449086010BD0000CE
:1005B000001002400000FFF8FFFFF6FE08ED00E02B
:1005C00000BFFEE7014642F228324A434FF0E023E3
:1005D0005A6101221A6100229A6100BF4FF0E022A5
:1005E000106900F001021AB100F48032002AF5D03F
:1005F00000224FF0E0231A619A61704710B5012183
:100600004048FFF7E9FE01281BD10A20FFF7DAFF77
:1006100001213C48FFF7E0FE01280BD101213A48B7
:10062000FFF7E3FEC0F10100C4B2224601213648C3
:10063000FFF7E8FE00BF01213248FFF7CDFE00289A
:10064000F9D108213148FFF7C7FED0B90A20FFF7DA
:10065000B9FF08212D48FFF7BFFE58B908212A48E5
:10066000FFF7C3FEC0F10100C4B2224601212648B3
:10067000FFF7C8FE00BF08212448FFF7ADFE0028A1
:10068000F9D004212148FFF7A7FED0B90A20FFF7CF
:1006900099FF04211D48FFF79FFE58B904211A480D
:1006A000FFF7A3FEC0F10100C4B2224601211648A3
:1006B000FFF7A8FE00BF04211448FFF78DFE0028B5
:1006C000F9D010211148FFF787FED0B90A20FFF7B3
:1006D00079FF10210D48FFF77FFE58B910210A4815
:1006E000FFF783FEC0F10100C4B222460121064893
:1006F000FFF788FE00BF10210448FFF76DFE0028B9
:10070000F9D010BD00080140001001400018014060
:10071000FFF780FEFFF7ACFD01E0FFF76FFFFCE79E
:100720003007000800000020600600006C0100088F
:0400000508000131BD
:00000001FF
