:020000040800F2
:10000000B0060020B1010008D90600089D060008CE
:10001000D50600086B020008D508000800000000A3
:10002000000000000000000000000000850700083C
:10003000C102000800000000610700087108000804
:10004000CB010008CB010008CB010008CB01000860
:10005000CB010008CB010008C5020008CB01000855
:100060002903000889030008E9030008CB01000800
:10007000CB010008CB010008CB010008CB01000830
:10008000CB010008CB010008CB010008CB01000820
:10009000CB010008CB010008CB010008CB01000810
:1000A000CB010008CB010008CB010008CB01000800
:1000B000CB010008CB010008CB010008CB010008F0
:1000C000CB010008CB010008CB010008CB010008E0
:1000D000CB010008CB010008CB010008CB010008D0
:1000E000CB010008CB010008CB010008CB010008C0
:1000F000CB010008CB010008CB010008CB010008B0
:10010000CB010008CB010008CB010008CB0100089F
:10011000CB010008CB010008CB010008CB0100088F
:10012000CB010008CB010008CB010008CB0100087F
:1001300000F002F800F02CF80AA090E8000C8244CD
:100140008344AAF10107DA4501D100F021F8AFF2AA
:10015000090EBAE80F0013F0010F18BFFB1A43F0A5
:10016000010318479C080000AC080000002300248D
:1001700000250026103A28BF78C1FBD8520728BFB7
:1001800030C148BF0B6070471FB51FBD10B510BD13
:1001900000F031F81146FFF7F7FF00F02BFC00F0FC
:1001A0004FF803B4FFF7F2FF03BC00F057F800006C
:1001B0000948804709480047FEE7FEE7FEE7FEE7FB
:1001C000FEE7FEE7FEE7FEE7FEE7FEE70448054937
:1001D000054A064B70470000750800083101000809
:1001E000B0000020B0060020B0020020B0020020C5
:1001F000704770477047754600F02CF8AE46050012
:100200006946534620F00700854618B020B5FFF731
:10021000DDFFBDE820404FF000064FF000074FF033
:1002200000084FF0000B21F00701AC46ACE8C00914
:10023000ACE8C009ACE8C009ACE8C0098D4670471D
:1002400010B50446AFF300802046BDE81040FFF72C
:10025000A8BF000000487047500000200149182046
:10026000ABBEFEE726000200704700BFFEE70000BD
:1002700008B50121442000F075FA1C20ADF80000FB
:1002800048208DF8030003208DF8020069460A48D3
:1002900000F05EF90120ADF8000028208DF8030081
:1002A00003208DF802006946044800F051F901214D
:1002B000024800F0EAF908BD0018014000080140BA
:1002C0007047000010B5012000F0C4F8012823D1C8
:1002D00012480068401C11490860012000F0B4F881
:1002E0000A2000F0F9FA01210D4800F0BCF90128BC
:1002F0000BD101210B4800F0BFF9C0F10100C4B2DD
:1003000022460121074800F0C4F900BF012104483A
:1003100000F0A9F90128F9D010BD0000000000206C
:10032000000801400010014010B5042000F092F8D0
:1003300010B312484068401C10494860042000F087
:1003400083F80A2000F0C8FA04210D4800F08BF968
:1003500058B904210B4800F08FF9C0F10100C4B274
:1003600022460421074800F094F900BF0421044804
:1003700000F079F90028F9D010BD0000000000203D
:10038000001801400010014010B5082000F062F88C
:1003900010B312488068401C10498860082000F0A3
:1003A00053F80A2000F098FA08210D4800F05BF994
:1003B00058B908210B4800F05FF9C0F10100C4B240
:1003C00022460821074800F064F900BF08210448CC
:1003D00000F049F90028F9D010BD0000000000200D
:1003E000001801400010014010B5102000F032F854
:1003F00010B31248C068401C1049C860102000F0BB
:1004000023F80A2000F068FA10210D4800F02BF9BB
:1004100058B910210B4800F02FF9C0F10100C4B207
:1004200022461021074800F034F900BF102104488B
:1004300000F019F90028F9D010BD000000000020DC
:100440000018014000100140014908607047000099
:1004500014040140014600200022074B1B6803EAF8
:100460000102054B14331B680B4013B10AB1012084
:1004700000E00020704700000004014000212349F3
:100480008279002A3AD00A46126803689A430B46DA
:100490001A600A1D126803689A430B1D1A600279DC
:1004A00011440A6803681A430A60184A083212683D
:1004B00003689A43154B08331A601A1D12680368C3
:1004C0009A43124B0C331A604279102A0ED11A1F2C
:1004D000126803681A430D4B08331A601A1D12681C
:1004E00003681A43094B0C331A600DE0074942793F
:1004F00011440A6803681A430A6005E0027911444E
:100500000A6803689A430A607047000000040140CB
:1005100030B500228B071C0F0F2303FA04F20B4B9C
:100520008C1053F824309343084C8D1044F8253038
:1005300023468C1053F824308C07240F00FA04F45F
:100540002343024C8D1044F8253030BD0800014093
:100550002DE9F0410246002500260020002300245A
:10056000002791F803C00CF00F0591F803C00CF0C0
:10057000100CBCF1000F03D091F802C04CEA050545
:1005800091F800C0BCF1000F31D0146800202BE0BE
:100590004FF0010C0CFA00F3B1F800C00CEA0306AE
:1005A0009E4220D183004FF00F0C0CFA03F7BC439E
:1005B00005FA03FC4CEA040491F803C0BCF1280FCF
:1005C00006D14FF0010C0CFA00FCC2F814C00AE08E
:1005D00091F803C0BCF1480F05D14FF0010C0CFAA3
:1005E00000FCC2F810C0401C0828D1D31460B1F838
:1005F00000C0BCF1FF0F34DD546800202EE000F194
:10060000080C4FF0010808FA0CF3B1F800C00CEA2E
:1006100003069E4221D183004FF00F0C0CFA03F722
:10062000BC4305FA03FC4CEA040491F803C0BCF196
:10063000280F05D100F1080C08FA0CF8C2F8148054
:1006400091F803C0BCF1480F07D100F1080C4FF03E
:10065000010808FA0CF8C2F81080401C0828CED314
:100660005460BDE8F0810246002093680B400BB156
:10067000012000E00020704702460020D3680B40B4
:100680000BB1012000E0002070474161704701611B
:1006900070470AB1016100E04161704700BFFEE7A9
:1006A00008B50121102000F05DF8FF20ADF8000032
:1006B00010208DF8030003208DF8020069460448DD
:1006C000FFF746FF4FF6FF710148FFF7E0FF08BD57
:1006D0000010014000BFFEE77047000070B5002128
:1006E00000230F22C47804B3154C246804F4E0649A
:1006F000C4F5E064210AC1F10403CA40447804FA55
:1007000003F184781440214309010E4C0678A15569
:10071000047804F01F050124AC4005786D11AD008C
:1007200005F1E025C5F8004109E0047804F01F0553
:100730000124AC40044D0678761145F8264070BD82
:100740000CED00E000E400E080E100E0024901433C
:10075000024A1160704700000000FA050CED00E04D
:100760007047000029B1064A92690243044B9A611E
:1007700004E0034A92698243014B9A61704700008A
:1007800000100240704710B500F002F810BD0000E4
:100790000CB50020019000903348006840F4803090
:1007A0003149086000BF3048006800F40030009014
:1007B0000198401C0190009818B90198B0F5A06FFD
:1007C000F1D12948006800F4003010B101200090F8
:1007D00001E0002000900098012843D123480068E0
:1007E00040F01000214908600846006820F003002E
:1007F00008600846006840F0020008601A48406837
:10080000194948600846406848600846406840F416
:10081000806048600846406820F47C1048600846C4
:10082000406840F4E81048600846006840F0807076
:10083000086000BF0C48006800F000700028F9D084
:100840000948406820F003000749486008464068AE
:1008500040F00200486000BF0348406800F00C0010
:100860000828F9D10CBD0000001002400020024011
:100870007047000010B51348006840F001001149AE
:10088000086008464068104908400E49486008461C
:1008900000680E4908400B4908600846006820F4CB
:1008A000802008600846406820F4FE0048604FF44D
:1008B0001F008860FFF767FF4FF000600449086081
:1008C00010BD0000001002400000FFF8FFFFF6FE20
:1008D00008ED00E000BFFEE7014642F228324A433D
:1008E0004FF0E0235A6101221A6100229A6100BF91
:1008F0004FF0E022106900F001021AB100F48032DA
:10090000002AF5D000224FF0E0231A619A61704767
:100910000EB5FFF7ADFC01210846FFF723FF0221CA
:100920000420FFF7F5FD03210420FFF7F1FD04216A
:100930000846FFF7EDFD00210846FFF7E9FD1C2002
:10094000019000208DF808000C208DF8090001208E
:100950008DF80A0001A8FFF791FD01200190002009
:100960008DF8080008208DF8090001208DF80A0094
:1009700001A8FFF783FD4FF4C060FFF7E7FE0820F2
:100980008DF8000000208DF801008DF80200012094
:100990008DF803006846FFF7A1FE09208DF80000DE
:1009A00000208DF801008DF8020001208DF8030071
:1009B0006846FFF793FE0A208DF8000000208DF8AE
:1009C000010002208DF8020001208DF80300684626
:1009D000FFF784FE06208DF8000000208DF801004E
:1009E00003208DF8020001208DF803006846FFF710
:1009F00075FE0EBDFFF78CFFFFF752FE00BFFEE74E
:100A0000100A000800000020B00600006C01000879
:0400000508000131BD
:00000001FF
