:020000040800F2
:10000000C0060020CD010008270600081F060008D2
:100010002306000887020008790A00080000000093
:100020000000000000000000000000006107000860
:100030008B020008000000001D0700084D080008A2
:10004000E7010008E7010008E7010008E7010008F0
:10005000E7010008E70100088D020008E701000839
:10006000F102000851030008B1030008E70100088D
:10007000E7010008E7010008E7010008E7010008C0
:10008000E7010008E7010008E7010008E7010008B0
:10009000E7010008E7010008E7010008E7010008A0
:1000A000E7010008E7010008E7010008E701000890
:1000B000E7010008B1080008E7010008E7010008AF
:1000C000E7010008E7010008E7010008E701000870
:1000D000E7010008E7010008E7010008E701000860
:1000E000E7010008E7010008E7010008E701000850
:1000F000E7010008E7010008E7010008E701000840
:10010000E7010008E7010008E7010008E70100082F
:10011000E7010008E7010008E7010008E70100081F
:10012000E7010008E7010008E7010008E70100080F
:1001300000F002F800F03AF80AA090E8000C8244BF
:100140008344AAF10107DA4501D100F02FF8AFF29C
:10015000090EBAE80F0013F0010F18BFFB1A43F0A5
:10016000010318475C0900007C090000103A24BF15
:1001700078C878C1FAD8520724BF30C830C144BF0C
:1001800004680C607047000000230024002500264E
:10019000103A28BF78C1FBD8520728BF30C148BFEA
:1001A0000B6070471FB51FBD10B510BD00F031F8D2
:1001B0001146FFF7F7FF00F07DFC00F04FF803B4A5
:1001C000FFF7F2FF03BC00F057F800000948804732
:1001D00009480047FEE7FEE7FEE7FEE7FEE7FEE729
:1001E000FEE7FEE7FEE7FEE704480549054A064B41
:1001F000704700005108000831010008C0000020CD
:10020000C0060020C0020020C002002070477047D6
:100210007047754600F02CF8AE4605006946534617
:1002200020F00700854618B020B5FFF7DDFFBDE8D8
:1002300020404FF000064FF000074FF000084FF04D
:10024000000B21F00701AC46ACE8C009ACE8C009DE
:10025000ACE8C009ACE8C0098D46704710B504464B
:10026000AFF300802046BDE81040FFF7A8BF0000B4
:10027000004870475C00002001491820ABBEFEE733
:1002800026000200704700BFFEE7704710B501204E
:1002900000F0C4F8012823D112480068401C11491D
:1002A0000860012000F0B4F80A2000F0E7FB01210B
:1002B0000D4800F09BF901280BD101210B4800F0FB
:1002C0009EF9C0F10100C4B222460121074800F0A6
:1002D000A1F900BF0121044800F088F90128F9D0F4
:1002E00010BD00000C00002000080140001001407B
:1002F00010B5042000F092F810B312484068401C7A
:1003000010494860042000F083F80A2000F0B6FB92
:1003100004210D4800F06AF958B904210B4800F097
:100320006EF9C0F10100C4B222460421074800F072
:1003300071F900BF0421044800F058F90028F9D0F1
:1003400010BD00000C00002000180140001001400A
:1003500010B5082000F062F810B312488068401C05
:1003600010498860082000F053F80A2000F086FB4E
:1003700008210D4800F03AF958B908210B4800F05F
:100380003EF9C0F10100C4B222460821074800F03E
:1003900041F900BF0821044800F028F90028F9D0ED
:1003A00010BD00000C0000200018014000100140AA
:1003B00010B5102000F032F810B31248C068401C8D
:1003C0001049C860102000F023F80A2000F056FB06
:1003D00010210D4800F00AF958B910210B4800F01F
:1003E0000EF9C0F10100C4B222461021074800F006
:1003F00011F900BF1021044800F0F8F80028F9D0E6
:1004000010BD00000C000020001801400010014049
:1004100001490860704700001404014001460020B3
:100420000022074B1B6803EA0102054B14331B68CB
:100430000B4013B10AB1012000E00020704700001A
:10044000000401402DE9F04102460025002600206D
:1004500000230024002791F803C00CF00F0591F849
:1004600003C00CF0100CBCF1000F03D091F802C0D7
:100470004CEA050591F800C0BCF1000F31D01468BA
:1004800000202BE04FF0010C0CFA00F3B1F800C093
:100490000CEA03069E4220D183004FF00F0C0CFAA9
:1004A00003F7BC4305FA03FC4CEA040491F803C0CB
:1004B000BCF1280F06D14FF0010C0CFA00FCC2F879
:1004C00014C00AE091F803C0BCF1480F05D14FF009
:1004D000010C0CFA00FCC2F810C0401C0828D1D353
:1004E0001460B1F800C0BCF1FF0F34DD5468002087
:1004F0002EE000F1080C4FF0010808FA0CF3B1F8F7
:1005000000C00CEA03069E4221D183004FF00F0C7D
:100510000CFA03F7BC4305FA03FC4CEA040491F817
:1005200003C0BCF1280F05D100F1080C08FA0CF843
:10053000C2F8148091F803C0BCF1480F07D100F154
:10054000080C4FF0010808FA0CF8C2F81080401CA3
:100550000828CED35460BDE8F0810000F0B50A460B
:10056000002300240021002500F00046B6F1004FD2
:1005700002D11D4EF16901E01B4E7168C0F30345C5
:1005800083B200F44016B6F5401F08D121F0706127
:10059000154E766826F07066134F7E6012E000F408
:1005A0008016B6F5801F06D1032606FA05F4A1438E
:1005B00041F0706106E0460D360103FA06F6B143DC
:1005C00041F0706122B1460D360103FA06F631435F
:1005D00000F00046B6F1004F02D1034EF16101E098
:1005E000014E7160F0BD0000000001400246002095
:1005F00093680B400BB1012000E0002070470246D9
:100600000020D3680B400BB1012000E000207047B0
:10061000C16070470AB1016100E04161704700BFED
:10062000FEE700BFFEE7704700B589B00121022058
:1006300000F076F80121102000F082F80121084630
:1006400000F07EF84FF46170ADF81C000020ADF8AA
:100650001800ADF81E00ADF81A0006A9154800F004
:10066000B9F901211448FFF779FF6020ADF80400C3
:100670000120ADF806000220ADF80C0001A90D48DC
:1006800000F046F908210B4800F094F98020ADF8FD
:10069000140018208DF8170003208DF8160005A906
:1006A0000648FFF7CFFE0121024800F024F909B007
:1006B00000BD000000040040000C1A0000100140C2
:1006C00010B50A2000F0DAF91148007801280CD1A1
:1006D00010480068401C0F49086008460068C82898
:1006E0000ED900200A4908700AE00A480068401E36
:1006F000084908600846006810B9012004490870DC
:100700000448008881B2044800F061F910BD00007F
:100710000400002008000020000400407047000092
:1007200029B1064AD2690243044BDA6104E0034A64
:10073000D2698243014BDA61704700000010024029
:1007400029B1064A92690243044B9A6104E0034AC4
:1007500092698243014B9A61704700000010024089
:10076000704710B500F002F810BD00000CB5002075
:10077000019000903348006840F4803031490860AF
:1007800000BF3048006800F4003000900198401C21
:100790000190009818B90198B0F5A06FF1D12948DF
:1007A000006800F4003010B10120009001E000204A
:1007B00000900098012843D12348006840F01000C1
:1007C000214908600846006820F0030008600846D8
:1007D000006840F0020008601A4840681949486003
:1007E0000846406848600846406840F480604860B9
:1007F0000846406820F47C1048600846406840F491
:10080000E81048600846006840F08070086000BF4B
:100810000C48006800F000700028F9D009484068D2
:1008200020F00300074948600846406840F0020095
:10083000486000BF0348406800F00C000828F9D168
:100840000CBD000000100240002002407047000074
:1008500010B51348006840F00100114908600846CF
:100860004068104908400E494860084600680E4933
:1008700008400B4908600846006820F480200860A2
:100880000846406820F4FE0048604FF41F0088606E
:10089000FFF767FF4FF000600449086010BD0000DB
:1008A000001002400000FFF8FFFFF6FE08ED00E038
:1008B00010B501210B4800F01BF80B4802780078B6
:1008C000401C094B187001209040C04381B207487A
:1008D000FFF79EFE04480078082802D10020024954
:1008E000087010BD0004004000000020001001400E
:1008F000CA430282704721B1028842F0010202809D
:1009000004E002884FF6FE731A4002807047000030
:1009100070B5002400220023058C4FF6EF76354099
:100920000584028C8388048B48F6FF752C404FF6B3
:10093000FF452C400D884FF6FF7606EA05252C432F
:100940004FF6DF752A400D8906EA05152A434D88C2
:1009500006EA05152A43154DA84202D0144DA842B7
:100960001DD14FF67F752A404D894FF6FF7606EA76
:1009700005152A434FF6BF752A408D8806EA0515EE
:100980002A434FF6FF352B404FF2FF752B408D89E0
:1009900006EA85052B43CD8906EA85052B4383802E
:1009A0000483CD880587028470BD0000002C0140BF
:1009B000003401400A460021018B4FF2FF731940B9
:1009C0004FF6FF7303EA022319430183704701873F
:1009D00070470000002202881D4B98420ED01D4B2C
:1009E00098420BD0B0F1804F08D01B4B984205D0F5
:1009F0001A4B984202D01A4B984204D14FF68F738B
:100A00001A404B881A43174B984207D0164B98420E
:100A100004D04FF6FF431A40CB881A4302808B88DC
:100A200083850B8803850A4B98420BD0094B98426B
:100A300008D00E4B984205D00D4B984202D00D4B7A
:100A4000984201D10B7A038601238382704700000C
:100A5000002C014000340140000400400008004028
:100A6000000C004000100040001400400040014015
:100A7000004401400048014000BFFEE7014642F249
:100A800028324A434FF0E0235A6101221A610022C2
:100A90009A6100BF4FF0E022106900F001021AB124
:100AA00000F48032002AF5D000224FF0E0231A61D2
:100AB0009A617047FFF7B8FD01E0FFF701FEFCE720
:100AC000E00A0008000000200C0000006C01000893
:100AD000EC0A00080C000020B406000088010008A1
:0C0AE00000000000010000000000000009
:0400000508000131BD
:00000001FF
