:020000040800F2
:10000000B8060020CD010008CD05000891050008C4
:10001000C9050008870200086D09000800000000FB
:100020000000000000000000000000009906000829
:100030008B02000800000000550600088507000834
:10004000E7010008E7010008E7010008E7010008F0
:10005000E7010008E70100088D020008E701000839
:10006000F102000851030008B1030008E70100088D
:10007000E7010008E7010008E7010008E7010008C0
:10008000E7010008E7010008E7010008E7010008B0
:10009000E7010008E7010008E7010008E7010008A0
:1000A000E7010008E7010008E7010008E701000890
:1000B000E7010008E9070008E7010008E701000878
:1000C000E7010008E7010008E7010008E701000870
:1000D000E7010008E7010008E7010008E701000860
:1000E000E7010008E7010008E7010008E701000850
:1000F000E7010008E7010008E7010008E701000840
:10010000E7010008E7010008E7010008E70100082F
:10011000E7010008E7010008E7010008E70100081F
:10012000E7010008E7010008E7010008E70100080F
:1001300000F002F800F03AF80AA090E8000C8244BF
:100140008344AAF10107DA4501D100F02FF8AFF29C
:10015000090EBAE80F0013F0010F18BFFB1A43F0A5
:10016000010318475008000070080000103A24BF2F
:1001700078C878C1FAD8520724BF30C830C144BF0C
:1001800004680C607047000000230024002500264E
:10019000103A28BF78C1FBD8520728BF30C148BFEA
:1001A0000B6070471FB51FBD10B510BD00F031F8D2
:1001B0001146FFF7F7FF00F0F7FB00F04FF803B42C
:1001C000FFF7F2FF03BC00F057F800000948804732
:1001D00009480047FEE7FEE7FEE7FEE7FEE7FEE729
:1001E000FEE7FEE7FEE7FEE704480549054A064B41
:1001F000704700008907000831010008B80000209E
:10020000B8060020B8020020B802002070477047EE
:100210007047754600F02CF8AE4605006946534617
:1002200020F00700854618B020B5FFF7DDFFBDE8D8
:1002300020404FF000064FF000074FF000084FF04D
:10024000000B21F00701AC46ACE8C009ACE8C009DE
:10025000ACE8C009ACE8C0098D46704710B504464B
:10026000AFF300802046BDE81040FFF7A8BF0000B4
:10027000004870475400002001491820ABBEFEE73B
:1002800026000200704700BFFEE7704710B501204E
:1002900000F0C4F8012823D112480068401C11491D
:1002A0000860012000F0B4F80A2000F061FB012191
:1002B0000D4800F052F901280BD101210B4800F044
:1002C00055F9C0F10100C4B222460121074800F0EF
:1002D0005AF900BF0121044800F03FF90128F9D084
:1002E00010BD000004000020000801400010014083
:1002F00010B5042000F092F810B312484068401C7A
:1003000010494860042000F083F80A2000F030FB18
:1003100004210D4800F021F958B904210B4800F0E0
:1003200025F9C0F10100C4B222460421074800F0BB
:100330002AF900BF0421044800F00FF90028F9D081
:1003400010BD000004000020001801400010014012
:1003500010B5082000F062F810B312488068401C05
:1003600010498860082000F053F80A2000F000FBD4
:1003700008210D4800F0F1F858B908210B4800F0A9
:10038000F5F8C0F10100C4B222460821074800F088
:10039000FAF800BF0821044800F0DFF80028F9D07F
:1003A00010BD0000040000200018014000100140B2
:1003B00010B5102000F032F810B31248C068401C8D
:1003C0001049C860102000F023F80A2000F0D0FA8D
:1003D00010210D4800F0C1F858B910210B4800F069
:1003E000C5F8C0F10100C4B222461021074800F050
:1003F000CAF800BF1021044800F0AFF80028F9D077
:1004000010BD000004000020001801400010014051
:1004100001490860704700001404014001460020B3
:100420000022074B1B6803EA0102054B14331B68CB
:100430000B4013B10AB1012000E00020704700001A
:10044000000401402DE9F04102460025002600206D
:1004500000230024002791F803C00CF00F0591F849
:1004600003C00CF0100CBCF1000F03D091F802C0D7
:100470004CEA050591F800C0BCF1000F31D01468BA
:1004800000202BE04FF0010C0CFA00F3B1F800C093
:100490000CEA03069E4220D183004FF00F0C0CFAA9
:1004A00003F7BC4305FA03FC4CEA040491F803C0CB
:1004B000BCF1280F06D14FF0010C0CFA00FCC2F879
:1004C00014C00AE091F803C0BCF1480F05D14FF009
:1004D000010C0CFA00FCC2F810C0401C0828D1D353
:1004E0001460B1F800C0BCF1FF0F34DD5468002087
:1004F0002EE000F1080C4FF0010808FA0CF3B1F8F7
:1005000000C00CEA03069E4221D183004FF00F0C7D
:100510000CFA03F7BC4305FA03FC4CEA040491F817
:1005200003C0BCF1280F05D100F1080C08FA0CF843
:10053000C2F8148091F803C0BCF1480F07D100F154
:10054000080C4FF0010808FA0CF8C2F81080401CA3
:100550000828CED35460BDE8F0810246002093689D
:100560000B400BB1012000E0002070470246002044
:10057000D3680B400BB1012000E0002070470161FF
:100580007047C16070470AB1016100E04161704786
:1005900000BFFEE708B50121102000F06DF8FF2034
:1005A000ADF8000010208DF8030003208DF8020044
:1005B00069460448FFF746FF4FF6FF710148FFF711
:1005C000DEFF08BD0010014000BFFEE770470000DD
:1005D00070B5002100230F22C47804B3154C2468A1
:1005E00004F4E064C4F5E064210AC1F10403CA40E4
:1005F000447804FA03F184781440214309010E4C35
:100600000678A155047804F01F050124AC40057854
:100610006D11AD0005F1E025C5F8004109E0047851
:1006200004F01F050124AC40044D0678761145F80E
:10063000264070BD0CED00E000E400E080E100E049
:1006400002490143024A1160704700000000FA05A8
:100650000CED00E07047000029B1064AD269024360
:10066000044BDA6104E0034AD2698243014BDA6148
:10067000704700000010024029B1064A9269024307
:10068000044B9A6104E0034A92698243014B9A61E8
:100690007047000000100240704710B500F002F8EB
:1006A00010BD00000CB50020019000903348006898
:1006B00040F480303149086000BF3048006800F4E1
:1006C000003000900198401C0190009818B90198E2
:1006D000B0F5A06FF1D12948006800F4003010B1E6
:1006E0000120009001E0002000900098012843D1F3
:1006F0002348006840F0100021490860084600685F
:1007000020F0030008600846006840F0020008601E
:100710001A484068194948600846406848600846D9
:10072000406840F4806048600846406820F47C10CF
:1007300048600846406840F4E81048600846006891
:1007400040F08070086000BF0C48006800F0007046
:100750000028F9D00948406820F0030007494860A4
:100760000846406840F00200486000BF0348406807
:1007700000F00C000828F9D10CBD00000010024068
:10078000002002407047000010B51348006840F098
:1007900001001149086008464068104908400E49A8
:1007A0004860084600680E4908400B490860084642
:1007B000006820F4802008600846406820F4FE00AD
:1007C00048604FF41F008860FFF767FF4FF000603C
:1007D0000449086010BD0000001002400000FFF84E
:1007E000FFFFF6FE08ED00E010B501210B4800F018
:1007F0001BF80B4802780078401C094B1870012048
:100800009040C04381B20748FFF7BBFE0448007820
:10081000082802D100200249087010BD00040040E1
:100820000000002000100140CA430282704721B13D
:10083000028842F00102028004E002884FF6FE7353
:100840001A40028070471AB183890B43838102E00A
:1008500083898B4383817047002202881D4B984215
:100860000ED01D4B98420BD0B0F1804F08D01B4BDF
:10087000984205D01A4B984202D01A4B984204D1A4
:100880004FF68F731A404B881A43174B984207D084
:10089000164B984204D04FF6FF431A40CB881A43B8
:1008A00002808B8883850B8803850A4B98420BD086
:1008B000094B984208D00E4B984205D00D4B9842F8
:1008C00002D00D4B984201D10B7A0386012383821B
:1008D00070470000002C014000340140000400403B
:1008E00000080040000C00400010004000140040D0
:1008F0000040014000440140004801401FB5012173
:100900000220FFF7A9FE01211748FFF78DFF4FF4E2
:100910007A70ADF8040048F69F40ADF80000002062
:10092000ADF80600ADF8020069460F48FFF794FFE6
:1009300001210D48FFF77BFF012211460A48FFF70E
:1009400082FF4FF4C060FFF77BFE1D208DF80C0086
:1009500000208DF80D008DF80E0001208DF80F009D
:1009600003A8FFF735FE1FBD0004004000BFFEE7EF
:10097000014642F228324A434FF0E0235A610122F5
:100980001A6100229A6100BF4FF0E022106900F066
:1009900001021AB100F48032002AF5D000224FF093
:1009A000E0231A619A617047FFF7A8FFFFF7F2FD95
:1009B00000BFFEE7D409000800000020040000008A
:1009C0006C010008D809000804000020B4060000EB
:0809D00088010008000000008E
:0400000508000131BD
:00000001FF
