:020000040800F2
:100000002008002089010008E90F0008090F0008F6
:10001000E50F0008CF020008FD20000800000000E6
:10002000000000000000000000000000C1150008F2
:10003000C10C000800000000151200084D1E000849
:10004000A3010008A3010008A3010008A301000800
:10005000A3010008A3010008A3010008A3010008F0
:10006000A3010008A3010008A3010008A3010008E0
:10007000A3010008A3010008A3010008A3010008D0
:10008000A3010008A3010008A3010008A3010008C0
:100090006D200008A3010008A3010008A3010008C7
:1000A000A3010008A3010008A3010008A3010008A0
:1000B000A3010008A3010008A3010008A301000890
:1000C000A3010008A3010008A3010008A301000880
:1000D000A3010008A3010008A3010008A301000870
:1000E000A3010008A3010008A301000800F002F822
:1000F00000F03AF80AA090E8000C82448344AAF188
:100100000107DA4501D100F02FF8AFF2090EBAE885
:100110000F0013F0010F18BFFB1A43F0010318473B
:100120006421000084210000103A24BF78C878C1FF
:10013000FAD8520724BF30C830C144BF04680C60ED
:10014000704700000023002400250026103A28BF35
:1001500078C1FBD8520728BF30C148BF0B60704739
:100160001FB51FBD10B510BD00F077F81146FFF7A1
:10017000F7FF01F0E1FF00F095F803B4FFF7F2FF9D
:1001800003BC00F09DF8000009488047094800477B
:10019000FEE7FEE7FEE7FEE7FEE7FEE7FEE7FEE737
:1001A000FEE7FEE704480549054A064B7047000094
:1001B000511E0008ED000008200200202008002049
:1001C000200400202004002010B5431C02E010F899
:1001D000011B71B18107FAD14FF0013202C88C1AAC
:1001E0008C4314EAC211F9D0C01A0A0603D0C01E0B
:1001F00010BDC01A10BD0A0401D0801E10BD090236
:10020000FCD0401E10BD4FF0000200B513469446CE
:100210009646203922BFA0E80C50A0E80C50B1F15E
:100220002001BFF4F7AF090728BFA0E80C5048BF72
:100230000CC05DF804EB890028BF40F8042B08BF10
:10024000704748BF20F8022B11F0804F18BF00F80C
:10025000012B7047704770477047754600F02CF8C7
:10026000AE4605006946534620F00700854618B0A3
:1002700020B5FFF797FFBDE820404FF000064FF094
:1002800000074FF000084FF0000B21F00701AC46CB
:10029000ACE8C009ACE8C009ACE8C009ACE8C009EA
:1002A0008D46704710B50446AFF300802046BDE888
:1002B0001040FFF762BF000000487047C0010020F7
:1002C00001491820ABBEFEE726000200704700BFC0
:1002D000FEE70146CAB20B1243EA02207047000053
:1002E00008B50020009022E19748008800F00F0038
:1002F000964908700846007800287CD19448006828
:10030000944908800846008800F03000924908802F
:100310009048008800F440508E4908808C49096854
:100320004BF6BF7201EA020080F4005080F020001A
:1003300040F4004141F08001854A11608248008804
:1003400000F0100090BB1046006848F60F7108409E
:100350001146086000F0DAFD7D4909684BF6BF726E
:1003600001EA02007B49098801F4805109B180F457
:1003700080507849098801F4005109B180F4005097
:100380007549098801F0100109B180F01000724927
:10039000098801F0200109B180F0200081B241F408
:1003A000004141F080016A4A116008BDFFE76848DA
:1003B000006880B20090BDF8000000F40060B0B3A7
:1003C00063480068C0F30E0048F68F71084060492A
:1003D000086001F081FA5E4909684BF6BF7201EAD4
:1003E00002005C49098801F4805109B180F4805011
:1003F0005849098800E056E001F4005109B180F441
:1004000000505549098801F0100109B180F0100031
:100410005149098801F0200109B180F0200081B222
:1004200041F4004141F08001494A1160BDE7FFE716
:10043000BDF8000000F40040002878D0444800686F
:10044000C0F30E0048F68F7108404149086000F083
:10045000A5FE3F4909684BF6BF7201EA02003D491B
:10046000098801F4805109B180F480503949098824
:1004700001F4005109B180F400503749098801F0B6
:10048000100109B180F010003349098801F0200102
:1004900009B180F0200081B241F4004141F08001B7
:1004A0002B4A116081E7294800782C4901EB800034
:1004B000D0F8000C80B20090BDF8000000F40040BD
:1004C000C0B12248007801EB8000D0F8000CC0F3E6
:1004D0000E0048F68F7108401C4909781F4A02EB4C
:1004E0008101C1F8000C19490978491E1C4A52F8CB
:1004F00021008047BDF8000000F08000B8B113482B
:100500000078164901EB8000D0F8000C48F60F7116
:1005100008400E490978114A02EB8101C1F8000C2C
:100520000A490978491E0F4A52F8210080470848B5
:100530004430006880B20449088000F4004000287C
:100540007FF4D2AE00BF30E7440000200C00002052
:10055000005C0040200000202200002000500040ED
:1005600064000020480000200B4A02EB8001D1F813
:10057000001C01F4804171B102EB8001D1F8001C34
:1005800048F68F7211404CF280021143024B03EB8C
:100590008002C2F8001C7047005000400B4A02EB7A
:1005A0008001D1F8001C01F0400171B102EB800123
:1005B000D1F8001C48F68F72114048F2C002114376
:1005C000024B03EB8002C2F8001C70470050004051
:1005D000084A02EB8001D1F8001C48F68F621140F6
:1005E00048F280021143034B03EB8002C2F8001C67
:1005F000704700000050004070B504460025062CEE
:1006000018D118480068007800F07F00012811D147
:1006100014480068407968B9124800688078222838
:1006200001D1114D10E00F480068807821280BD1CE
:100630000E4D09E00B480068007800F07F0021288B
:1006400002D1032C00D10A4D0DB9022070BD05481E
:100650000068856100210348006841820020A847A6
:100660000020F3E710000020CD0600089D060008DA
:10067000B106000810B504460249204601F054FABC
:1006800010BD0000E400002010B5044602492046D9
:1006900001F04AFA10BD0000DC00002010B504464D
:1006A0000249204601F040FA10BD0000F40000208D
:1006B000014629B90120034A1268108200207047C0
:1006C0000148FCE7100000208000002010B504461F
:1006D0000249204601F028FA10BD0000EC0000207D
:1006E00070B5054606480068C478042C01DD00207A
:1006F00070BD044800EBC401284601F015FAF7E785
:1007000010000020FC0000200246002901DD02202C
:100710007047002A01DD0220FAE70020F8E7000018
:1007200000B5024606480068007800F07F002128E6
:1007300004D10B2A02D100F077F800BD0220FCE7BB
:100740001000002010B500202A4909688872294944
:100750000968C8722848C07926490968487200208B
:1007600000F030FF4FF40071002001F025F8102157
:10077000002000F0E7FF1821002000F053FF58216F
:10078000002000F0C1FF0020FFF722FF1B4890F877
:100790002C10002000F058FF002000F09BFF4FF4C9
:1007A000C061012001F008F89821012000F03AFF13
:1007B0004021012000F048FF4FF44051012000F09B
:1007C00069FF4FF4C061022000F0F6FF4FF4CC71D6
:1007D000022000F099FF4021022000F0A5FF202117
:1007E000022000F0AFFF012005490860002000F062
:1007F000F1FE10BD100000205E21000888000020DE
:100800001C01002003480068807A10B105200249CD
:1008100008607047100000201C01002004200149DE
:10082000086070471C01002003480068C178034835
:1008300001600020704700001000002080000020B0
:100840007047704710B500F03BFB00200A4909686B
:10085000887200F005FD0020084908604FF43F4011
:1008600007490880084600880449091F08600020DD
:100870000449086010BD000010000020445C0040E6
:100880001A0000201C0100202DE9F04728480068CC
:1008900000F110052E8826480068077AD6B9042F83
:1008A00018D12448007801280FD10021224800687F
:1008B00080B2801C214A42F8101030202049088064
:1008C00000BF00201B49087003E0072710201C49C7
:1008D000088027E0AC88A64201D8042000E002206E
:1008E0000746B44200D93446A0B2A968884780467A
:1008F000002000F0D5FA8146A2B24946404601F0F8
:10090000FFFBA1B2002000F00FFF2888001B288009
:10091000688820446880302009490880000209491D
:10092000088000BF024909680F72BDE8F087000027
:100930001000002008000020505C004000600040D3
:1009400022000020200000202DE9F04130480068FE
:1009500000F110042688A068C0B1BEB1A588B542D8
:1009600000D93546A8B2A168884707462088401BB1
:100970002080608828446080002000F06FFA804664
:10098000AAB24146384600F031FC00BF208850B181
:100990004FF440501F4908800021084600F0C4FE73
:1009A00030201D4908802088A188884204DB03206C
:1009B00017490968087228E02088002804DD05200E
:1009C00013490968087220E02088F0B90620104910
:1009D0000968087211490968886880470C480068EE
:1009E000007A082806D140020A49088010200A49E6
:1009F00008800AE000210A48006880B2801C094A89
:100A000042F81010302004490880BDE8F081000051
:100A100010000020200000202200002014000020F0
:100A2000505C0040006000402DE9F84F9B48006892
:100A300045780027BA46062D1BD1984800680078F3
:100A400000F07F00002813D19449096888780128B4
:100A500003D193490968CF690AE0022803D190497C
:100A600009680F6A04E0032802D18D4909684F6ABA
:100A700094E0002D64D189480068408800285FD147
:100A800086480068C08802285AD1844800680079E6
:100A9000002855D181480068007800F07F0028B90F
:100AA0007E480068808808B97E4F77E07B48006800
:100AB000007800F07F00012810D178490968487952
:100AC000774909688A6900219047002866D17348F0
:100AD0000068807A002861D0724F5FE06F4800683C
:100AE000007800F07F00022858D16C4800684079F7
:100AF00000F00F0669480068407900F07009674807
:100B00000068407900F0800038B1674901EB860049
:100B1000D0F8000C00F0300806E0634901EB8600D5
:100B2000D0F8000C00F4405860480078B04235D945
:100B3000B9F1000F32D1B8F1000F2FD0594F2DE08D
:100B4000082D07D155480068007800F07F0028BBC9
:100B5000574F23E00A2D21D150480068007800F05B
:100B60007F0001281AD14D480068807AB0B14B4807
:100B70000068408890B949480068007970B94748D2
:100B80000068C088012809D1444909684879444966
:100B900009688A690021904700B9464F57B13F481C
:100BA0000068A0F812A03D48006887610020B8479F
:100BB00000240FE0394A12685078394A12681169E6
:100BC00088470446032C05D1092034490968087276
:100BD000BDE8F88F31480068008A4FF6FF718842FF
:100BE00004D109202D4909680872F1E7022C03D0CD
:100BF0002A480068008A20B9082028490968087234
:100C0000E6E726480068007800F08000E0B323485B
:100C10000068C088009021480068008A00998842D6
:100C200004D91E4900980968088223E01B4800681F
:100C3000008A1A490968C98888421BDA174800687F
:100C4000008A1749096891F82C10884203DA0020BD
:100C5000194908700EE011480068008A10490968B7
:100C600091F82C1090FBF1F201FB120010B9012059
:100C7000114908700A48006890F82C10074800686D
:100C80008182FFF701FE07E0FFE7032003490968BF
:100C9000087200030949088000BF99E7100000208E
:100CA00014000020791B0008005000408400002040
:100CB000FD1A00084D1B000808000020200000203D
:100CC0007047000010B501F00BF901200A490870C7
:100CD00000F0D4F80949088040229821084800F023
:100CE00085FA074890F83F00064908704FF44051D4
:100CF000012000F0CFFC10BD3E000020400000208D
:100D0000400100204200002010B5002404E0002033
:100D100005490855601CC4B2402CF8DB012003498A
:100D2000087001F0DDF810BD800100203F000020B8
:100D300003200149086070471C0100202DE9F041A3
:100D4000024600250026002000230024002791F8F9
:100D500003C00CF00F0591F803C00CF0100CBCF1AF
:100D6000000F03D091F802C04CEA050591F800C0CD
:100D7000BCF1000F31D0146800202BE04FF0010CC3
:100D80000CFA00F3B1F800C00CEA03069E4220D131
:100D900083004FF00F0C0CFA03F7BC4305FA03FC79
:100DA0004CEA040491F803C0BCF1280F06D14FF0BF
:100DB000010C0CFA00FCC2F814C00AE091F803C060
:100DC000BCF1480F05D14FF0010C0CFA00FCC2F841
:100DD00010C0401C0828D1D31460B1F800C0BCF189
:100DE000FF0F34DD546800202EE000F1080C4FF0B6
:100DF000010808FA0CF3B1F800C00CEA03069E42A1
:100E000021D183004FF00F0C0CFA03F7BC4305FA15
:100E100003FC4CEA040491F803C0BCF1280F05D18F
:100E200000F1080C08FA0CF8C2F8148091F803C01D
:100E3000BCF1480F07D100F1080C4FF0010808FA87
:100E40000CF8C2F81080401C0828CED35460BDE8CE
:100E5000F08141617047016170470000014605481B
:100E6000006880B200EBC100001D034A32F8100098
:100E700080B27047505C0040006000400146064868
:100E8000006880B200EBC100801D044A32F81000F7
:100E9000C0F3090070470000505C00400060004053
:100EA00001460548006880B200EBC100034A32F8F1
:100EB000100080B270470000505C004000600040AD
:100EC00010B50F4B18681B1D19681B1D1A68A8B1B7
:100ED0000C4CA070030A2371030CA371030E237240
:100EE000A1720B0A23730B0CA3730B0E2374A27451
:100EF000130A2375130CA375130E237610BD00007F
:100F0000E8F7FF1F2400002000BFFEE710B51848D7
:100F10000068047A022C01D0042C05D1FFF7B4FC40
:100F200013480068047A1CE0062C19D110480068A8
:100F3000407805280ED10E480068007800F07F0048
:100F400040B90B490968C87800F044FB09490968B1
:100F5000086A80470849096888688047082400E0D3
:100F60000824034909680C7200F056F910BD00000E
:100F7000100000201C0000201400002008B50121F2
:100F8000042000F09DF90620ADF8000010208DF837
:100F9000030003208DF8020069460448FFF7CEFEE7
:100FA00000F09EFF00F0ACFF08BD0000000801400B
:100FB00010B500F087FC00F0CBFF00F084FC00F0DF
:100FC000A9FF10BD0548817A19B10521044A1160B5
:100FD00002E00121024A1160704700002401002054
:100FE0001C01002000BFFEE77047704770B500216C
:100FF00000230F22C47804B3154C246804F4E06481
:10100000C4F5E064210AC1F10403CA40447804FA3B
:1010100003F184781440214309010E4C0678A15550
:10102000047804F01F050124AC4005786D11AD0073
:1010300005F1E025C5F8004109E0047804F01F053A
:101040000124AC40044D0678761145F8264070BD69
:101050000CED00E000E400E080E100E070B5022665
:1010600048480068447847480068007800F07F00EE
:10107000002847D1092C03D100F0FEFD064662E0AE
:10108000052C14D13F480068C0787F280BDC3D4810
:101090000068807838B93B480068808818B93948BA
:1010A0000068807A08B1082568E000264BE0032C30
:1010B0000ED134480068C078012807D13148006853
:1010C000808818B900F0FCFD06463CE002263AE0B4
:1010D000012C38D12B480068C078012810D129484C
:1010E0000068808860B927480068407A00F02000D6
:1010F00030B100202449086000F04AFC064622E096
:10110000022620E01F480068007800F07F000128D8
:1011100005D10B2C17D100F04FFE064613E01948FD
:101120000068007800F07F0002280BD1012C03D169
:1011300000F02EFC064606E0032C04D100F0D4FD9E
:10114000064600E002264EB1E0B2104A126851692C
:1011500088470646032E01D109250FE00EB1082568
:101160000CE0062500210A48006880B2801C094A6C
:1011700042F8101030200849088000BF0149096872
:101180000D7270BD1000002004000020140000202B
:10119000505C0040006000402200002010B5114863
:1011A0000068047A022C01D0042C01D1082412E03A
:1011B000032C01D0052C05D1FFF7C6FB09480068B8
:1011C000047A08E0072C05D107490968C8688047F8
:1011D000082400E00824034909680C7200F01CF898
:1011E00010BD00001000002014000020F0B5561CB7
:1011F0007510074E06EB41042B4605E034F8047BDE
:1012000020F8017B401C5B1E002BF7D1F0BD0000D5
:10121000006000407047000010B50D4890F82C1099
:10122000002000F011FA0B480068007A082805D168
:1012300040020949088010200849088005480068D4
:10124000007A092801D1012010BD0020FCE7000030
:101250008800002010000020200000202200002034
:1012600010B5012000F054FE01240B48046000205A
:101270000A49088008460088074908600020091DBF
:1012800008604FF4E050054908800846008802498C
:101290000860002010BD0000405C00401A000020E3
:1012A00029B1064AD2690243044BDA6104E0034AD9
:1012B000D2698243014BDA6170470000001002409E
:1012C00029B1064A92690243044B9A6104E0034A39
:1012D00092698243014B9A617047000000100240FE
:1012E0000F48006840F001000D490860084640685A
:1012F0000C4908400A494860084600680A49084005
:10130000074908600846006820F480200860084605
:10131000406820F4FE0048604FF41F00886070476A
:10132000001002400000FFF8FFFFF6FE10B5014676
:101330000022002300204A11012A02D1094C23680F
:1013400006E0022A02D1074C236A01E0054C636AD9
:1013500001F01F02012494401C400CB1012000E068
:10136000002010BD001002400248406800F00C0050
:10137000704700000010024001460020034A5068F8
:1013800020F0F00008435060704700000010024059
:101390001149096821F480310F4A1160114609682A
:1013A00021F480211160B0F5803F03D0B0F5802F8B
:1013B0000ED106E00849096841F48031064A1160FF
:1013C00007E00549096841F4A021034A116000E0E3
:1013D00000BF00BF704700000010024010B5FFF7CB
:1013E0007FFF4FF48030FFF7D3FF00F063F8012850
:1013F00020D10020FFF7C0FF4FF4806000F01CF800
:10140000002000F025F84FF4E0114FF4803000F098
:1014100031F8012000F028F800BF3920FFF786FFDF
:101420000028FAD0022000F033F800BFFFF79CFF3D
:101430000828FBD110BD000001460020034A506877
:1014400020F4E06008435060704700000010024044
:1014500001460020034A506820F4605040EAC10071
:101460005060704700100240014908667047000054
:101470000000424202460020044B586820F47C10D1
:1014800042EA01031843014B5860704700100240C4
:1014900001460020034A506820F0030008435060D2
:1014A00070470000001002400149086070470000CA
:1014B000D800424238B5002000900024002500BF2B
:1014C0003120FFF733FF05460098401C009000983C
:1014D000B0F5A06F01D0002DF2D03120FFF726FF2C
:1014E00008B1012400E00024204638BD70B505464F
:1014F000072D01D02748057026480078082841D2DA
:10150000DFE800F0040A1016212E414200F046F8F0
:101510000620204908703BE000F040F804201D49F7
:10152000087035E002201B494870032008702FE046
:1015300018484078401E174948700846407808B956
:101540000420087024E01448006884B244F01004B9
:101550001148046005200F4908700A20487017E000
:101560000C484078401E0B4948700846407840B906
:101570000948006884B224F010040748046006207B
:10158000087005E000BF00BF06200249087000BFD8
:1015900000BF70BD21010020405C004010B507482D
:1015A000006884B224F0040404480460FFF70AFDD4
:1015B0004FF43F400149086010BD0000405C00400E
:1015C000704700004FF6F8710140014A1160704702
:1015D000505C004030B501460F4B1A78002014E0F3
:1015E00003060E4C04EB9353D3F8003C48F68F747B
:1015F000234048F280042343C4B223430406074D2A
:1016000005EB9454C4F8003C401C9042E8D341F0F0
:101610008003034C236030BD840000200050004054
:101620004C5C004010B54A105300054A126892B253
:1016300002EBC002121D034C44F8123010BD000032
:10164000505C00400060004010B502460F48006842
:1016500080B200EBC200801D0D4C04EB40033E291C
:101660000BDD481101F01F040CB9441EA0B24FF469
:10167000004444EA80241C6007E0481001F00104A3
:101680000CB1441CA0B284021C6010BD505C004030
:101690000060004030B50E4C04EB8003D3F8003CF2
:1016A0004BF68F7403EA040201F480530BB182F409
:1016B000805201F400530BB182F4005242F4004313
:1016C00043F08003024D05EB8004C4F8003C30BDBC
:1016D0000050004010B50B4B03EB8002D2F8002CF9
:1016E0004BF68F7302EA030181F4805181F40051BB
:1016F00041F4004242F08002024C04EB8003C3F844
:10170000002C10BD0050004010B54A105200044B90
:101710001B689BB203EBC003024C44F8132010BDBE
:10172000505C004000600040044A126892B202EB34
:10173000C002921C024B43F812107047505C0040EC
:101740000060004030B50E4C04EB8003D3F8003C41
:1017500048F6BF7403EA040201F010030BB182F0F3
:10176000100201F020030BB182F0200242F400438A
:1017700043F08003024D05EB8004C4F8003C30BD0B
:101780000050004010B50B4B03EB8002D2F8002C48
:1017900048F6BF7302EA030181F0100181F02001D5
:1017A00041F4004242F08002024C04EB8003C3F893
:1017B000002C10BD0050004010B5074B03EB800219
:1017C000D2F8002C48F68F131A400A43024C04EB5F
:1017D0008003C3F8002C10BD0050004010B500F08D
:1017E00001F810BD0CB5002001900090334800684E
:1017F00040F480303149086000BF3048006800F490
:10180000003000900198401C0190009818B9019890
:10181000B0F5A06FF1D12948006800F4003010B194
:101820000120009001E0002000900098012843D1A1
:101830002348006840F0100021490860084600680D
:1018400020F0030008600846006840F002000860CD
:101850001A48406819494860084640684860084688
:10186000406840F4806048600846406820F47C107E
:1018700048600846406840F4E81048600846006840
:1018800040F08070086000BF0C48006800F00070F5
:101890000028F9D00948406820F003000749486053
:1018A0000846406840F00200486000BF03484068B6
:1018B00000F00C000828F9D10CBD00000010024017
:1018C00000200240704710B50020FFF7EDFD012118
:1018D000C805FFF7E5FC10BD38B5012429480068AC
:1018E00080B2001D284931F8100080B201EB4000A1
:1018F000009026480068007A092832D000980078C5
:101900002249096808700098401C009000980078EF
:101910001E49096848700098401C0090009800EB30
:1019200044000090009931F8020B0091FEF7D1FCC1
:10193000164909684880009800EB4400009000991F
:1019400031F8020B0091FEF7C4FC10490968888049
:10195000009800EB44000090009800880B4909684B
:10196000C880012009490968087208480068C088D1
:1019700010B9FFF773FB01E0FFF756F8FFF74CFCD7
:1019800038BD0000505C00400060004010000020A6
:101990002DE9F04754480068007800F07F08B8F15E
:1019A000000F0AD150480068407A00F0DF004E492D
:1019B000096848720020BDE8F087B8F1020F7CD1B9
:1019C00049480068408818B947480068007908B15C
:1019D0000220F0E7DFF8149143480068477927F0C8
:1019E00080052C4640480068407900F0800038B1FE
:1019F0003F4901EB8400D0F8000C00F0300606E00F
:101A00003B4901EB8400D0F8000C00F4405699F8F3
:101A10000000A84204D91EB133480068807A08B992
:101A20000220C8E707F0800080B1314901EB840053
:101A3000D0F8000C00F0300010284BD1E0B2FEF7D7
:101A4000ADFDE0B23021FFF77DFE43E0284901EB18
:101A50008400D0F8000C00F44050B0F5805F39D11C
:101A6000E4B9244A92F82C10E0B2FFF7EDFD204AC9
:101A700002EB8401D1F8001C4BF68F7201EA0200E0
:101A800080F4805080F4005040F4004141F0800127
:101A9000174B03EB8402C2F8001C1BE0E0B2FEF718
:101AA00063FD134A02EB8401D1F8001C4BF68F72E0
:101AB00001EA020080F4805000E011E080F4005060
:101AC00040F4004141F08001094B03EB8402C2F86D
:101AD000001C00BF084909684869804700206AE780
:101AE00000BF022067E700001000002084000020F3
:101AF00000500040880000201C00002010B5044663
:101B00002CB90120064909680882002010BD05494A
:101B1000096808688047024800680A30F6E7000054
:101B2000100000201C00002010B502460648006886
:101B3000438A32B98888C01A034C24682082002066
:101B400010BD08681844FBE71000002010B50446DB
:101B50002CB90120064909680882002010BD0549FA
:101B6000096888688047024800680C30F6E7000082
:101B7000100000201C00002010B504462CB90220E3
:101B8000394909680882002010BD002037490880C3
:101B900035480068007800F07F0018BB32490968BA
:101BA000487A00F0200131B13049097841F0020152
:101BB0002E4A117005E02D49097801F0FD012B4AEC
:101BC000117000F0400131B12849097841F001015C
:101BD000264A117005E02549097801F0FE01234AE3
:101BE00011703AE020480068007800F07F0001287A
:101BF00001D11E48C8E71C480068007800F07F004B
:101C0000022828D1184A1268517901F00F0001F01A
:101C100080027AB1164B03EB8002D2F8002C02F05E
:101C20003002102A16D1114A127842F001020F4BED
:101C30001A700FE00E4B03EB8002D2F8002C02F476
:101C40004052B2F5805F05D1084A127842F0010295
:101C5000064B1A7001E0002096E7064909680869FA
:101C60008047024890E7000010000020000000209C
:101C7000005000401C00002010B50E480068C078DD
:101C80000D494978884213DC0A480068807878B9A1
:101C900008480068808858B906480068C078054937
:101CA000096888720549096848688047002010BDA6
:101CB0000220FCE710000020840000201C0000200F
:101CC00010B507480068407A40F0200004490968D0
:101CD000487204490968C8698047002010BD0000A7
:101CE000100000201C0000202DE9F0412E48006863
:101CF000467926F080073C462B480068407900F082
:101D0000800038B1294901EB8400D0F8000C00F0C4
:101D1000300506E0254901EB8400D0F8000C00F402
:101D2000405523480078A04208D91F4800684088E1
:101D300020B91DB11C480068807A10B90220BDE8A6
:101D4000F08106F08000A0B1184A02EB8401D1F8BE
:101D5000001C48F6BF7201EA020080F0100040F457
:101D6000004141F08001114B03EB8402C2F8001CDA
:101D700014E00E4A02EB8401D1F8001C4BF68F727E
:101D800001EA020080F4805040F4004141F08001FB
:101D9000064B03EB8402C2F8001C00BF054909682A
:101DA000886980470020CAE71000002000500040EA
:101DB000840000201C00002010B5174B1B68D97848
:101DC000154B1B685879154B1B689A699047044658
:101DD00011480068807AE8B13CB90F480068007982
:101DE00018B90D480068807808B1022010BD8CB980
:101DF0000B490968C8688047074800684079064968
:101E00000968C87204480068C07803490968087303
:101E10000020EBE70220E9E710000020140000207A
:101E20001C00002010B50848006884B244F0080483
:101E300005480460006884B244F004040248046069
:101E4000FEF776FF10BD0000405C004070470000C8
:101E500010B51348006840F00100114908600846B9
:101E60004068104908400E494860084600680E491D
:101E700008400B4908600846006820F4802008608C
:101E80000846406820F4FE0048604FF41F00886058
:101E9000FFF7A4FC4FF000600449086010BD00008B
:101EA000001002400000FFF8FFFFF6FE08ED00E022
:101EB00010B500F001F810BD10B59AB0642101A86A
:101EC000FEF7A1F9002404480078012802D1034854
:101ED00000F0D0F81AB010BD3E000020F421000838
:101EE00010B502210148FEF7B6FF10BD0008014001
:101EF00010B502210148FEF7ACFF10BD00080140FB
:101F000010B504210148FEF7A4FF10BD00080140F0
:101F10007047000010B508480849086002200968A9
:101F200008720748074908600748084908600549DA
:101F300009680868804710BD2401002010000020B7
:101F40008800002014000020B80000201C000020A1
:101F500008B514208DF8000001208DF80100002044
:101F60008DF8020001208DF803006846FFF73EF867
:101F700008BD000010B5374800683749088008469A
:101F8000008800F4806035490988084030B14FF678
:101F9000FF30304908603249486880472E48008841
:101FA00000F400502D490988084018B14DF6FF7023
:101FB000284908602848008800F48050274909888B
:101FC000084030B14EF6FF70224908600020FFF74C
:101FD0008DFA2148008800F40060204909880840F3
:101FE00060B12048007810B1FFF71CFF02E002202A
:101FF000FFF77CFA4FF2FF70164908601648008818
:1020000000F4007015490988084040B14FF6FF50B0
:102010001049086014480078401C134908700E48A5
:10202000008800F480700D490988084030B14FF6EF
:10203000FF60084908600720FFF758FA0648008843
:1020400000F4004005490988084008B1FEF748F946
:1020500010BD0000445C0040440000201A00002035
:1020600088000020200100204600002010B5FFF766
:1020700081FF10BD2DE9F041044600250026002710
:102080002046FEF7A1F807462EE01A4800780128FE
:102090002AD1FFF72DFF14F8012B2846691CCDB279
:1020A00015490A5405EB8610B8420CD1002011499D
:1020B000087040224FF4CC710F4800F021F8022044
:1020C000FFF760FB13E0402D0ED100200949087096
:1020D00040224FF4CC71084800F012F80220FFF7BC
:1020E00051FB701CC6B2002520780028CDD100BF5E
:1020F000BDE8F0813F0000208001002000BFFEE726
:10210000F0B5144604F1010C4FEA6C07DFF824C067
:102110000CEB41033D460AE00678401C90F800C0F5
:1021200046EA0C2223F8022B9B1C401C6D1E002D3E
:10213000F2D1F0BD00600040FFF750F9FEF71EFF3E
:10214000FEF736FF01E0FFF7B3FEFCE712010002E5
:10215000000000408304150400020102030109028B
:102160002900010100C03209040000020300000040
:10217000092110010001222100070582034000010E
:1021800007050103400001058C0901A101090315A0
:10219000002600FF750895408102090415002600FD
:1021A000FF750895409102C00403090426035300FB
:1021B00054004D006900630072006F0065006C0000
:1021C00065006300740072006F006E0069006300B8
:1021D00073002003590055004E0047004B00550086
:1021E000200043007500730074006F006D00000054
:1021F000000000006130613161326133613461356A
:10220000613661376138613962306231623262331E
:102210006234623562366237623862396330633104
:1022200063326333633463356336633763386339EA
:1022300064306431643264336434643564366437E2
:1022400064386439653065316532653365346535C8
:1022500065366537653865396630663166326633AE
:102260006634663566366637663866396730673194
:10227000673267336734673567366737673867397A
:10228000200D0A00A4220008000000202401000004
:1022900028010008C823000824010020FC060000D3
:1022A00044010008000000000000000000000000E1
:1022B000000000000000000000000000000000001E
:1022C00000000000000000001A03530054004D00FD
:1022D0003300320000000000000000000000000099
:1022E000000000010000000000000000EB0F0008EB
:1022F000090D0008EB0F0008EB0F0008EB0F0008BA
:10230000EB0F0008EB0F0008C50C0008EB0F0008EE
:10231000EB0F0008EB0F0008EB0F0008EB0F0008B5
:10232000EB0F000800000000030100004508000852
:10233000450700084108000843080008F90500089F
:10234000210700080907000889060008750600082B
:10235000E10600080000000040000000EB0F00084C
:1023600005080008EB0F0008EB0F0008EB0F000852
:10237000EB0F0008EB0F0008EB0F00081D0800082A
:102380004C210008120000005E2100082900000016
:1023900087210008210000007021000809000000CA
:1023A000A821000804000000AC210008260000005D
:1023B000D221000820000000240000201A000000A4
:0823C000000000000100000014
:04000005080000ED02
:00000001FF
