:020000040800F2
:10000000304600200D0200087D3A0008412D00080E
:10001000793A00085D050008276C00080000000020
:100020000000000000000000000000006560000803
:10003000351C0008000000008F020008AD620008B7
:1000400081730008B945000821630008A94A000827
:10005000591D000821470008E51C0008051D00087F
:10006000191D00082D1D0008391D0008751B00080A
:10007000811B0008951B0008A91B0008BD1B000878
:10008000D11B0008E51B000849050008076C0008A3
:10009000176C0008DD0B0008E90B00084D1D000877
:1000A00035630008716300085D6300084963000858
:1000B000DD6300081764000825640008592D000856
:1000C000452D0008812D00086D2D000829600008CD
:1000D0003D600008E9680008F96800080569000843
:1000E000F91C000827020008270200082702000860
:1000F000270200082702000827020008270200083C
:10010000270200082702000839640008516000082F
:10011000616800087D6800084D640008616400089B
:10012000F91B00080D1C0008211C0008270200080C
:1001300000F002F800F05AF80AA090E8000C82449F
:100140008344AAF10107DA4501D100F04FF8AFF27C
:10015000090EBAE80F0013F0010F18BFFB1A43F0A5
:1001600001031847DC080100FC0801000A444FF0B5
:10017000000C10F8013B13F0070408BF10F8014B06
:100180001D1108BF10F8015B641E05D010F8016B4B
:10019000641E01F8016BF9D113F0080F1EBF10F8AF
:1001A000014BAD1C0C1B09D16D1E58BF01F801CBD2
:1001B000FAD505E014F8016B01F8016B6D1EF9D555
:1001C0009142D6D37047000000230024002500266A
:1001D000103A28BF78C1FBD8520728BF30C148BFAA
:1001E0000B6070471FB51FBD10B510BD00F087F93B
:1001F0001146FFF7F7FF07F09FFF00F073F803B415
:10020000FFF7F2FF03BC00F073F9000009488047D4
:1002100009480047FEE7FEE7FEE7FEE7FEE7FEE7E8
:10022000FEE7FEE7FEE7FEE704480549054A064B00
:1002300070470000C1620008310100083040002012
:10024000304600203042002030420020EFF3108082
:1002500072B6704780F3108870471B484FF080518A
:100260000160704718484FF080510160704717488F
:100270004FF0FF010160002080F30988144801213C
:10028000017011484FF08051016062B6FEE772B60E
:10029000EFF3098028B1203880E8F00F0D49096894
:1002A00008600D480D490A7802700A480C490A682E
:1002B0000260106890E8F00F203080F309884EF05B
:1002C000F40E62B6704700BF04ED00E022ED00E0DE
:1002D000300000204C0000203200002033000020BD
:1002E0004800002010B50446AFF300802046BDE86A
:1002F0001040FFF784BF032A40F2308010F0030C57
:1003000000F0158011F8013BBCF1020F624498BF68
:1003100011F801CB00F8013B38BF11F8013BA2F105
:10032000040298BF00F801CB38BF00F8013B11F080
:10033000030300F06780083AC0F0088051F8043BDE
:10034000083A51F804CBA0E80810F5E7121D5CBF8D
:1003500051F8043B40F8043BAFF30080D20724BFC0
:1003600011F8013B11F801CB48BF11F8012B24BF54
:1003700000F8013B00F801CB48BF00F8012B7047A3
:10038000431A28BF9A427FF6B6AF032A104411449D
:1003900040F2268010F0030F1EBF11F8013D521EDF
:1003A00000F8013D10F0030F7FF4F6AF11F00303E6
:1003B00000F07080083AC0F00B8051F8043D083A14
:1003C00051F804CD40F8043D40F804CDFFF7F3BFE9
:1003D000121D5CBF51F8043D40F8043DAFF30080AE
:1003E000D20724BF11F8013D11F801CD48BF11F823
:1003F000012C24BF00F8013D00F801CD48BF00F8F2
:10040000012C704710B5203AC0F00B80B1E81850AD
:10041000203AA0E81850B1E81850A0E81850BFF4EE
:10042000F5AF5FEA027C24BFB1E81850A0E818508D
:1004300044BF18C918C0BDE810405FEA827C24BFE1
:1004400051F8043B40F8043B08BF7047D20728BF6F
:1004500031F8023B48BF11F8012B28BF20F8023BBE
:1004600048BF00F8012B7047704770477047431A28
:1004700028BF9A427FF6C6AF104410F0030F114414
:100480001EBF11F8013D521E00F8013D10F0030F90
:100490007FF4F6AF103AC0F00A8010B531E9185079
:1004A000103A20E91850BFF4F9AFBDE810405307E7
:1004B00024BF31E9081020E9081044BF51F8043D79
:1004C00040F8043D12F0030F08BF7047D20728BF61
:1004D00031F8023D48BF11F8012C28BF20F8023D39
:1004E00048BF00F8012C704700487047CC3F0020FF
:1004F00001491820ABBEFEE7260002007047754692
:10050000FFF7F2FFAE4605006946534620F00700AC
:10051000854618B020B5FFF787FEBDE820404FF0B4
:1005200000064FF000074FF000084FF0000B21F0DD
:100530000701AC46ACE8C009ACE8C009ACE8C009AA
:10054000ACE8C0098D4670470348008840F00100C0
:1005500001490880704700000200002000BFFEE74C
:1005600010B50B4C0020208004F11000A060E0606A
:10057000002003F0B3FC60600020A4F8700004F1D8
:100580008000A067E067082003F0A8FC606710BD4A
:10059000782300202DE9F84307460D464FF0000868
:1005A000174C6A463946606803F0B4FC9DF80000B9
:1005B00010B10520BDE8F883FFF748FE804620888B
:1005C00020B94046FFF746FE0520F3E72088401E8D
:1005D0002080E6683068286070686860B068A8604D
:1005E000E0680C30E06004F17000E168814201D104
:1005F0006038E0604046FFF72DFE0020DAE700009B
:100600007823002070B50546104CB4F8700000281F
:100610001ADDB4F87000401EA4F87000E66F306870
:10062000286070686860B068A860E06F0C30E067B0
:1006300004F1E000E16F814201D16038E067606F52
:1006400003F08CFB002070BD0420FCE77823002021
:1006500010B58AB004460121042003F0D7FF012120
:10066000480603F0B3FF4FF40060ADF824004820C3
:100670008DF8270003208DF8260009A9324801F0E3
:10068000BDFC4FF48050ADF8240018208DF82700F1
:1006900003208DF8260009A92B4801F0AFFC142097
:1006A0008DF8200000208DF8210006208DF8220012
:1006B00001208DF8230008A803F0E2F9234800F098
:1006C000E5FA05A800F015FC00208DF81A008DF859
:1006D0001B008DF81C0001208DF81D0000208DF8F6
:1006E0001E008DF81F008DF816008DF817000C20E5
:1006F0008DF8180001208DF819000920ADF81400BC
:1007000005A9124800F06BFB00208DF80E008DF853
:100710000F0001208DF810000020ADF80400ADF8A6
:100720000600ADF80800ADF80A00ADF80C00012095
:100730008DF8110001A800F0C5FA0122022103483A
:1007400000F044FB0AB010BD000801400064004006
:1007500010B5002005490860FFF702FF012004F0F2
:10076000B7FAFA20FFF774FF10BD00007C020020EA
:1007700070B50024074DFFF769FD0446288820B9AD
:100780002046FFF767FD012070BD2046FFF762FDA0
:100790000020F9E7782300202DE9F84307460D46AD
:1007A0004FF000081E4C6A463946606F03F0B2FBFA
:1007B0009DF8000010B10620BDE8F883FFF746FD64
:1007C0008046B4F87000401CA4F87000A66F28683A
:1007D000306068687060A868B060A06F0C30A06777
:1007E00004F1E000A16F814201D16038A067B4F844
:1007F000700001280ED10B48006828B90120094972
:10080000086000F023F905E00748006840F00100A7
:10081000054908604046FFF71DFD0020CCE70000B9
:10082000782300208C0200201464004070B5054637
:100830000D4C2088082816DA2088401C2080A668E5
:100840002868306068687060A868B060A0680C3084
:10085000A06004F17000A168814201D16038A060FD
:10086000606803F07BFA70BD7823002010B528483B
:10087000006820F003002749086025480830006818
:10088000486023480C30006888602348006840F0C6
:100890002000214908601F48FFF7C8FF1E48006874
:1008A00000F0030090B31A48006820F003001949D3
:1008B0000860174808300068486015480C30006828
:1008C00088601548006840F020001349086011480E
:1008D000FFF7ACFF1048006800F00300B0B10C480F
:1008E000006820F003000B490860094808300068E0
:1008F000486007480C30006888600748006840F08E
:100900002000054908600348FFF790FF10BD000074
:10091000B0650040602300200C64004010B50A4818
:10092000006820F00100084908600846006840F0AF
:10093000120008600021152001F076FA002116202F
:1009400001F072FA10BD00001464004000246AE057
:10095000012003F0E9FD0BE033490020FFF71AFE08
:10096000314804F0C5F901203049888730480488AF
:10097000FFF7FEFE0028EFD02D480088001B0F284F
:1009800002DD00202949888704F082F930B929481E
:10099000006820F040002749086005E0254800680D
:1009A00040F0400023490860234804F047FA30B97A
:1009B0002048006820F020001E49086005E01D481E
:1009C000006840F020001B4908601C48008D50B3AF
:1009D0001B48FFF717FE00BB1A48006800F0010033
:1009E0001849086008460068154909680843154910
:1009F000086008211348001D016011484168114832
:100A0000083001600E4881680E480C3001600D48C6
:100A1000006840F001000B4908600B48006840F096
:100A200001000949086093E748230020181F0020AF
:100A3000080000209002002054230020081B002002
:100A40006C230020806500401464004010B51948F4
:100A5000006820F00100174908601748FFF7D2FD31
:100A600030BB1648006800F00100144908600846D1
:100A700000681149096808431049086008210F48B7
:100A8000001D01600C4841680C48083001600A48AC
:100A900081680A480C3001600848006840F0010095
:100AA000064908600348006840F0010001490860F9
:100AB00010BD0000146400406C23002080650040DD
:100AC00010B54348006820F00100414908604148E2
:100AD000FFF798FD002879D13F48006800F0010039
:100AE0003D490860084600683A49096808433A49A0
:100AF000086008213848001D0160364841683648C2
:100B0000083001603348816833480C300160324856
:100B1000006840F00100304908602E48FFF772FD80
:100B200000284DD12C481030006800F001012A48FF
:100B300010300160006827490968084326491031D0
:100B40000860082124481430016022484168224886
:100B5000183001601F4881681F481C3001601E4822
:100B60001030006840F001011B4810300160194846
:100B7000FFF748FD20BB18482030006800F0010155
:100B8000154820300160006812490968084312497D
:100B90002031086008211048243001600D48416868
:100BA0000D48283001600B4881680B482C300160EB
:100BB00009482030006840F00101074820300160FA
:100BC0000348006840F001000149086010BD0000C2
:100BD000146400406C2300208065004010B503F0D1
:100BE0006DF803F077F810BD10B503F067F803F067
:100BF00071F810BD2DE9F041082550267827DFF85F
:100C00002C80002400BF0CE0C4EB041206EB42026F
:100C100011B238F8140002233AB201F0E5FC601C6E
:100C2000C4B2AC42F0DBBDE8F0810000601D0020E2
:100C30002DE9F0410826AA2478250A4F4FF0000834
:100C4000A7F25A20808F28B12A46214606A001F03B
:100C500091FD04E02A46214607A001F08BFDBDE886
:100C6000F0810000722100202020594553202020CF
:100C7000202020202000000020204E4F2020202077
:100C800020202020200000007047704710B5044647
:100C90000B48844209D10121480603F0A7FC00213A
:100CA0004FF0007003F0A2FC08E00121880603F079
:100CB0009DFC00214FF0806003F098FC10BD000007
:100CC0000064004010B50021837A012202FA03F18A
:100CD0003D4A126842F001023B4B1A603A4A1C320C
:100CE00012688A43384B1C331A60027BCAB9364AF1
:100CF0000C3212688A43344B0C331A604288C38822
:100D000042EA0343304A4032847A42F8343002885F
:100D1000838842EA03432C4A4032847A02EBC402BD
:100D20005360027B012A19D1274A0C3212680A4308
:100D3000254B0C331A604288038842EA0343224A57
:100D40004032847A42F83430C288838842EA0343CE
:100D50001D4A4032847A02EBC4025360C27A3AB927
:100D6000194A121D12688A43174B1B1D1A6006E0B0
:100D7000154A121D12680A43134B1B1D1A60028983
:100D800032B9114A143212688A430F4B14331A6075
:100D90000289012A06D10C4A143212680A430A4B0E
:100DA00014331A60427B012A06D1074A1C321268AA
:100DB0000A43054B1C331A60034A126822F00102F1
:100DC000014B1A6010BD0000006600401AB1436973
:100DD0000B43436102E043698B434361704730B585
:100DE000024600200023146824F0020414601468F2
:100DF00044F00104146000E05B1C546804F001043A
:100E00001CB94FF6FF74A342F6D1546804F00104F4
:100E10000CB900206CE08C79012C04D1146844F0EA
:100E20008004146003E0146824F080041460CC791A
:100E3000012C04D1146844F04004146003E01468E9
:100E400024F0400414600C7A012C04D1146844F09E
:100E50002004146003E0146824F0200414604C7A29
:100E6000012C04D1146844F01004146003E01468E9
:100E700024F0100414608C7A012C04D1146844F01E
:100E80000804146003E0146824F008041460CC7AA9
:100E9000012C04D1146844F00404146003E01468C5
:100EA00024F0040414608C78A407CD7844EA056427
:100EB0000D7944EA05444D7944EA05540D886D1EC8
:100EC0002C43D461146824F001041460002300E072
:100ED0005B1C546804F001041CB14FF6FF74A3427C
:100EE000F6D1546804F001040CB1002000E00120A8
:100EF00030BD00218171C171017241728172C17274
:100F00008170C170032101710221417101210180B1
:100F10007047000070B54579067905EB0625A9B242
:100F2000C579867905EB0625AAB2457A067A05EBDE
:100F30000625ABB2C57A867A05EB0625ACB28D18CC
:100F40001D44A54203D1024D29806A80AB8070BD4B
:100F50008002002001460C4B1888024608710312DB
:100F60004B71094B588813189AB288710312CB71D0
:100F7000054B988813189AB2087203124B721046E8
:100F800088720312CB72704786020020024641EA43
:100F900002207047012070470120704701207047F0
:100FA0000120704710B5064C0020208004F110008D
:100FB000A060E060002002F091FF606010BD0000C2
:100FC0000023002000200E490880012008814FF4F2
:100FD0007A700C4908800820488001200A4908805E
:100FE0000320488000208880C88008810120488133
:100FF000842088810A20C881012001490885704722
:10100000081B002048170020F81B002070B502467E
:10101000D669936908E0184600F0B2F90546681CE5
:1010200000B103E0D0680344B342F4D300BF50687A
:10103000A84225D1D06818441169401A9062D0683E
:101040001844D062D169D06A884201D39069D062D5
:10105000D068C6181069C41808E0204600F090F95E
:101060005168884200D003E010690444B442F4D3CC
:1010700000BF54621069201A10620320106022E041
:10108000681C80B9D168906908441169401A90625F
:10109000D16890690844D06290695062906910628A
:1010A000002010600FE0D168906908441169401A6F
:1010B0009062D16890690844D062906950629069EA
:1010C00010620220106070BD70B5244C02202060B8
:1010D000234860602348A0604042E0604FF44970BC
:1010E00020614FF4C87060611F48A0611F48E06133
:1010F000A0692062A0696062E168A0690844216972
:10110000401AA062E168A0690844E0622046FFF747
:101110007DFF2068032804D11549204600F047F8D8
:101120001BE0206830B900F00DFB1149204600F0AB
:1011300076F812E0206802280FD1A56904E028465D
:1011400000F0B0F8E0680544E069A842F7D800F084
:10115000F9FA0749204600F062F870BD1823002014
:101160001234200300F8FFFF00C807080000080839
:10117000E01F002070B503460C461546002608E027
:10118000204600F0FAF802461A80B01886B2A41C75
:101190009B1C281EA5F101018DB2F1D1204600F063
:1011A000ECF8B04201D0002070BD0120FCE770B522
:1011B00004460D46206A00F0E3F806466068B04237
:1011C00001D0002070BD216A081D2946626900F027
:1011D000C7F80120F6E72DE9F04104460D46904698
:1011E00000270CE034F8026B3146284600F0E2F8A4
:1011F00010B10020BDE8F081B81987B2AD1CB8F17C
:101200000000A8F101011FFA81F8EBD13946284608
:1012100000F0D0F808B10020ECE70120EAE770B553
:1012200004460D46A168206A00EA0106D4E90901D6
:10123000884210D8616A081D2946626900F0A3F847
:101240006168606A00F0D8F8606A20622169606AAB
:101250000844606224E0E06A6062616A081D294611
:10126000626900F090F86168606A00F0C5F8606A31
:101270002062E168606A08442169401AA06221691D
:10128000606A08446062E168E06A0844E062E1691B
:10129000E06A884201D3A069E062304600F002F8BB
:1012A00070BD000030B50546284600F025F808B1AD
:1012B000002030BD0E4800F04FFC0446ACB90D488C
:1012C000006940F002000B49086108464561006969
:1012D00040F040000861064800F03EFC0446054826
:1012E000006920F00200034908612046E1E70000A0
:1012F00000350C000020024010B50246D10AC90298
:10130000402327E001C9401C08B1002010BD01C9DD
:10131000401C08B10020F9E701C9401C08B10020B9
:10132000F4E701C9401C08B10020EFE701C9401CE7
:1013300008B10020EAE701C9401C08B10020E5E738
:1013400001C9401C08B10020E0E701C9401C08B1F8
:101350000020DBE7181EA3F10103D3D10120D5E75C
:1013600030B520F0010303E033F8024B21F8024BC3
:10137000141EA2F10102F7D130BD01460888704762
:10138000014608687047F0B504460D46174624F03C
:10139000010409E02988204600F00CF806460EB149
:1013A0003046F0BDA41CAD1C381EA7F10107F1D1D9
:1013B00000BFF6E730B503460C4623F0010342F2C6
:1013C000107000F0C9FB05468DB90A48006940F06D
:1013D0000100084908611C8042F2107000F0BCFB5B
:1013E00005460448006920F00100024908612846CA
:1013F00030BD00000020024070B504460D4624F0C8
:101400000104A9B22046FFF7D5FF064626B9290CEC
:10141000A01CFFF7CFFF0646304670BD0948C168E3
:1014200001F0010008B10120704701F0040008B18B
:101430000420F9E701F0100008B10220F4E70020D1
:10144000F2E700000020024030B503468818B0F5EE
:10145000C87F01D9002030BD0AE008464D1CA9B262
:10146000074D35F81040201203F8010B03F8014B2B
:10147000101EA2F10105AAB2EFD10120EBE7000096
:10148000F81B002030B503468818782801D90020C1
:1014900030BD0AE008464D1CA9B2074D35F8104092
:1014A000201203F8010B03F8014B101EA2F10105F5
:1014B000AAB2EFD10120EBE7081B002030B50346AC
:1014C0008818B0F5FA7F01D9002030BD0AE008463F
:1014D0004D1CA9B2074D35F81040201203F8010B3E
:1014E00003F8014B101EA2F10105AAB2EFD10120B1
:1014F000EBE70000181F002030B503468818B0F550
:10150000F07F01D9002030BD0AE008464D1CA9B289
:10151000074D35F81040201203F8010B03F8014B7A
:10152000101EA2F10105AAB2EFD10120EBE70000E5
:101530004817002010B500205B490860FFF732FD16
:1015400000F0C4F84FF4F07258495948FFF712FE02
:1015500030B95548006840F010005349086005E074
:101560005148006820F010004F4908607822514926
:101570005148FFF7FFFD30B94B48006840F02000AC
:101580004949086005E04848006820F020004649C5
:1015900008604FF4C87249494948FFF7EBFD30B97C
:1015A0004148006840F040003F49086005E03E487F
:1015B000006820F040003C490860FFF7F1FC40B9AA
:1015C0003948006840F480503749086000F0C4F89A
:1015D00005E03548006820F4805033490860FFF783
:1015E000DBFC40B93048006840F400502E490860E8
:1015F00000F09EF805E02C48006820F400502A49CD
:101600000860FFF7C7FC40B92748006840F48040F5
:101610002549086000F082F805E02348006820F4BE
:10162000804021490860FFF74FFD264800680228E6
:1016300006D11D48006840F080001B49086005E0A5
:101640001948006820F0800017490860FFF7A6FCE1
:1016500040B91548006840F400401349086000F0A4
:1016600071F805E01048006820F400400E49086059
:101670001548D0F8BC00A0B100201349C1F8BC0047
:101680004FF4F07200210A4804F0C0F978220021DA
:10169000094804F0BBF94FF4C8720021084804F06F
:1016A000B5F9FFF78FFC10BD7802002000B00708E5
:1016B0004817002000B80708081B002000C00708D2
:1016C000F81B0020182300200813002002480349BB
:1016D0004860034848607047230167450020024086
:1016E000AB89EFCD00B50C48007810B1012810D1BE
:1016F00007E00948407810B903F0BAF800BF00BF0E
:1017000008E00548407810B9FFF7BEFA00BF00BFF7
:1017100000E000BF00BF00BD6000002010B54FF426
:10172000C8720021014804F071F910BDF81B0020B7
:1017300010B578220021024804F068F910BD0000BD
:10174000081B002010B54FF4C8720021014804F0B6
:101750005DF910BDE01F002070470000F0B50346A2
:101760008818B0F5C87F01D90020F0BD0CE013F84F
:10177000014B13F8015B05EB042087B208464E1CB1
:10178000B1B2054E26F81070101EA2F10106B2B2D9
:10179000EDD10120E9E70000F81B00200246B2F578
:1017A000C87F04DA034820F8121001207047002097
:1017B000FCE70000F81B0020F0B5034688187828E5
:1017C00001D90020F0BD0CE013F8014B13F8015BC8
:1017D00005EB042087B208464E1CB1B2044E26F831
:1017E0001070101EA2F10106B2B2EDD10120E9E79E
:1017F000081B00200246782A04DA034820F8121059
:10180000012070470020FCE7081B0020F0B50346CC
:101810008818B0F5FA7F01D90020F0BD0CE013F86C
:10182000014B13F8015B05EB042087B208464E1C00
:10183000B1B2054E26F81070101EA2F10106B2B228
:10184000EDD10120E9E70000181F00200246B2F5A3
:10185000FA7F04DA034820F81210012070470020B4
:10186000FCE70000181F0020F0B503468818B0F50B
:10187000F07F01D90020F0BD0CE013F8014B13F804
:10188000015B05EB042087B208464E1CB1B2054E41
:1018900026F81070101EA2F10106B2B2EDD101209F
:1018A000E9E70000481700200246B2F5F07F04DAAD
:1018B000034820F81210012070470020FCE70000C8
:1018C000481700207047000008B5BAE05D48808FD7
:1018D000012812D100205B498887C02000F0F4F86D
:1018E000D02000F0F1F8E02000F0EEF8F02000F059
:1018F000EBF85A2000F0E8F818E05248808F0228F0
:1019000008D100204F498887C82200214E4804F0A2
:101910007DF80BE04B48808F032807D10020494910
:101920008887C8220021494804F070F869460A20D7
:1019300000F09CF804469DF800000028C5D15A2C00
:101940007FD100F0D9FA4248006800F48030F0B14D
:101950003F48006820F480303D4908603D48FFF76B
:10196000A1FC4FF4F0723B493B48FFF734FC30B91F
:101970003748006840F480703549086005E0344815
:10198000006820F480703249086000F0B5FA3048F1
:10199000006800F40030E8B12D48006820F4003001
:1019A0002B4908602D48FFF77DFC78222B492548FC
:1019B000FFF711FC30B92648006840F40070244954
:1019C000086005E02248006820F4007020490860A3
:1019D00000F092FA1E48006800F48020F0B11C4824
:1019E000006820F480201A4908601D48FFF75AFC5F
:1019F0004FF4C8721A491B48FFF7EDFB30B9144881
:101A0000006840F480601249086005E010480068F2
:101A100020F480600E49086000F06EFA0C480068FF
:101A200000F4002058B10A48006820F4002008495A
:101A3000086005490C48FFF7F2FB00F05DFA00F082
:101A40005BFA43E7081B0020E01F00207021002004
:101A50007802002000B007084817002000B80708E7
:101A600000C00708F81B0020182300202DE9F843C8
:101A700006460D464FF00008124C6A463146606833
:101A800002F048FA9DF8000020B1072028700020DD
:101A9000BDE8F883FEF7DAFB80462088401E2080F0
:101AA000E168481CE0600F7804F11800E1688142A9
:101AB00001D10838E0604046FEF7CCFB00202870DA
:101AC0003846E5E70023002070B505460026C02D06
:101AD00006D11F48006840F480301D49086070BD81
:101AE000E02D06D11A48006840F40030184908601B
:101AF000F5E7F02D06D11648006840F4802014491F
:101B00000860ECE7D02D06D11148006840F40020B1
:101B10000F490860E3E70F4C2088082816DAFEF723
:101B200095FB06462088401C2080A168481CA060C8
:101B30000D7004F11800A168814201D10838A0603D
:101B40003046FEF787FB606802F062FA00BFC6E726
:101B5000780200200023002000B5024604E0FFF7D1
:101B60005DFC08B9002000BD101EA2F10102F6D1F3
:101B70000520F8E710B502F0A1F802F0ABF810BDAF
:101B80000348008840F001000149088070470000C8
:101B9000020000200348008840F00100014908804D
:101BA00070470000020000200348008840F0010058
:101BB00001490880704700000200002003480088A7
:101BC00040F0010001490880704700000200002039
:101BD0000348008840F00100014908807047000078
:101BE000020000200348008840F0010001490880FD
:101BF00070470000020000200348008840F0010008
:101C00000149088070470000020000200348008856
:101C100040F00100014908807047000002000020E8
:101C20000348008840F00100014908807047000027
:101C300002000020704700EB4002D10000E0491E86
:101C40000029FCD1704700002DE9F047074689467E
:101C500014461D46DDF820802148007B00F002007C
:101C6000E0B9B8F1000F0DD009E0268838F8162049
:101C70004946384601F0E6FC6D1E7F1CA41C002D71
:101C8000F3DC2AE007E022884946384601F0DAFC16
:101C90006D1E7F1CA41C002DF5DC1EE0B8F1000FAA
:101CA0000ED00AE026882EB138F81620494638466C
:101CB00001F0C8FC6D1E7F1CA41C002DF2DC0CE0A2
:101CC00009E0268826B132464946384601F0BAFC7A
:101CD0006D1E7F1CA41C002DF3DCBDE8F087000006
:101CE000583D00200348008840F001000149088069
:101CF000704700000200002010B501F0DFFF01F086
:101D0000E9FF10BD0348008840F001000149088048
:101D100070470000020000200348008840F00100E6
:101D200001490880704700000200002010B501F052
:101D3000C5FF01F0CFFF10BD0348008840F001004F
:101D400001490880704700000200002010B501F032
:101D5000B5FF01F0BFFF10BD0348008840F001004F
:101D60000149088070470000020000201F21022066
:101D700000F0AEF8FEF7D2FD09E005488068401C8F
:101D800003498860FEF7E2FD022002F0CDFBF4E794
:101D9000081300201F21082000F09AF8FFF792FD99
:101DA00009E00548C069401C0349C861FFF78CFD84
:101DB000022002F0B9FBF4E70813002000200C49D0
:101DC00008800C4908800C4908800C4908800C499F
:101DD00008800C4908800C4908800C4908800C498F
:101DE00008800C4908800C4908800C49088070471D
:101DF0000000002006000020020000200400002057
:101E0000080000200A0000200C0000200E00002026
:101E100010000020120000201400002016000020F6
:101E20007047704770477047064A115400F01F030F
:101E300001229A4043119B0003F1E023C3F80021E3
:101E40007047000000E400E01F21102000F040F87F
:101E500001F020F8C82002F067FB09E0054800689F
:101E6000401C0449086001F019F8022002F05CFBF4
:101E7000F4E70000081300201F21042000F028F8D8
:101E800004E003F02DFD022002F04EFBF9E7000014
:101E90000B480068401E0A49086030B914200860E9
:101EA00008480088401C0749088007480088401CF3
:101EB0000549088005480088401C0449088070478F
:101EC000180000200800002000000020060000206C
:101ED00070B505460C460748008828430549088028
:101EE00002E0022002F020FB024800882040A042CD
:101EF000F7D170BD040000204AF6AA20014908600D
:101F000070470000003000401F210120FFF7E0FF74
:101F100005F044FA04E005F043FA022002F004FB65
:101F2000F9E7000010B504460A2C02D100F070FB5E
:101F30000DE00D2C0BD006488069016820468847CB
:101F40000448006818B1204602490968884710BD56
:101F5000583D0020BC0200202DE9F04387B0044624
:101F60000E461746D4F80C80002000F049FD0546C7
:101F7000B8F1000F05D098F8041011B145F0020136
:101F800001E025F00201084600F03AFD206970B139
:101F90000122D4E902018DE80700039263882288B8
:101FA00020693946D0F800C03046E0471EE0E068BE
:101FB00001F01DFA8146B9F1000F06D1E088012831
:101FC00001D0002000E00C488146A188E288A0688A
:101FD000CDE90409CDE90221012000900190638838
:101FE00022883946304600F081FF00BF284600F0C5
:101FF00007FD07B0BDE8F083583D00202DE9F04112
:10200000024600250026002000230024002791F826
:1020100003C00CF00F0591F803C00CF0100CBCF1DC
:10202000000F03D091F802C04CEA050591F800C0FA
:10203000BCF1000F31D0146800202BE04FF0010CF0
:102040000CFA00F3B1F800C00CEA03069E4220D15E
:1020500083004FF00F0C0CFA03F7BC4305FA03FCA6
:102060004CEA040491F803C0BCF1280F06D14FF0EC
:10207000010C0CFA00FCC2F814C00AE091F803C08D
:10208000BCF1480F05D14FF0010C0CFA00FCC2F86E
:1020900010C0401C0828D1D31460B1F800C0BCF1B6
:1020A000FF0F34DD546800202EE000F1080C4FF0E3
:1020B000010808FA0CF3B1F800C00CEA03069E42CE
:1020C00021D183004FF00F0C0CFA03F7BC4305FA43
:1020D00003FC4CEA040491F803C0BCF1280F05D1BD
:1020E00000F1080C08FA0CF8C2F8148091F803C04B
:1020F000BCF1480F07D100F1080C4FF0010808FAB5
:102100000CF8C2F81080401C0828CED35460BDE8FB
:10211000F0810246002093680B400BB1012000E0E3
:102120000020704741617047016170472DE9F04F11
:102130008BB005465F48B0F922000A905D48B0F9BF
:1021400024A080698469B4F80C80A84509DCE08982
:10215000A84206DBD4F80090A5EB08064FF0FF3745
:102160001DE0A068D4F80490A8B1B0F80080A8459C
:102170000DDC4188A9420ADB0288AA1A95B241689F
:1021800001EB8501B1F90060B1F9027006E04FF092
:10219000FF36374602E04FF0FF36374600BF701C6F
:1021A000002877D043488069007DA17C484309908E
:1021B000207C08903F488069007D07903D48B0F939
:1021C0002AB0584601F0D6FAC0B20690394A0998AA
:1021D00006FB0090A17C0123CDE90231CDE9040288
:1021E00010468069C07D11468969897DCDE900105E
:1021F0005146DDE907320A9800F078FE781CD8B124
:102200004BF0020001F0B6FA2A4A099807FB009049
:10221000A17C0123CDE90231CDE904021046806999
:10222000C07D11468969897DCDE900105146DDE9FF
:1022300007320A9800F05AFE1E488069407D1D4909
:102240008969097D884221DDBBF1020F1ED08BF028
:10225000040001F08FFA17488069007DDFF854C050
:10226000DCF818C09CF815C000FB0CA1114880696F
:10227000407D00EB0A030F48806990F816E0DDF816
:1022800020C00A980CFB0E0200F0ECFF069801F04B
:1022900071FA00BF0748B0F92200617C054A9269D3
:1022A000927D01FB020000B2024948840BB0BDE8F8
:1022B000F08F0000583D0020014605488069826982
:1022C00000BF507C024B9B699B7D584370470000C8
:1022D000583D002000BF02220A80704730B50446F6
:1022E000A26995898D4204DCD089884201DB0120F6
:1022F00030BD93683BB11888884204DC5888884216
:1023000001DB0120F4E700BF0020F1E72DE9F04FE9
:1023100087B005464248B0F92A8001468969886934
:10232000294600F07FF80646002E76D03188691ADB
:10233000706800EBC104A778404601F01BFA0690D4
:10234000374901226068CDE90227CDE9040108463A
:102350008069C07D8969897DDFF8C4C0CDE900103E
:10236000DCF818C09CF814302278DFF8B4C0BCF94F
:102370002410BCF9220000F0B9FD29488069407D95
:1023800027498969097D884237DD2548806990F8A9
:10239000179023488069407D00FB09FA2048806936
:1023A000007D00FB09FBB8F1020F25D000F050FAC8
:1023B000059000F037FA049000F01CFBDFF860C0D5
:1023C000BCF922C094F800E00CEB0E02DFF850C01C
:1023D000BCF924C00CEB0A03DFF844C0BCF924C0EC
:1023E0000CEB0B01DFF838C0BCF9220000F03AFF1B
:1023F000059800F0FFFA00BF00BF069801F0BAF997
:102400000748B0F922006178054A9269927D01FB84
:10241000020000B20249488400BF07B0BDE8F08F57
:10242000583D002007E002888A4203DC42888A4245
:1024300000DB02E080680028F5D100BF7047000093
:1024400070B504460949896988692146FFF7EAFFA2
:1024500005464DB12988611A686810F831000349B2
:102460008969897D484370BD0020FCE7583D002004
:1024700000BF01220A80704770B504460D46294608
:10248000A069FFF7CFFF06460EB1012070BD002006
:10249000FCE770B504460CB9002070BD204604F07E
:1024A000A5FF05462846F8E770B504462046FFF725
:1024B000F0FF05463DB1284600F024F806462246C6
:1024C000002100F000FC284670BD00009D200A4954
:1024D0004860886041F28830C88108820020086026
:1024E0008881042005494880002008800871012067
:1024F0000349087070470000443D002090390020D7
:10250000AC020020014609B90020704701EB4100F0
:10251000024A32F91000024A1044F6E790390020CE
:102520000826002030B51368082900DD30BD146886
:102530000C441460002415682C7005E000F00F04B2
:10254000054D2C5D5C5400090C1EA1F10105E9B29A
:10255000F4D100BFEAE700003286000810B5002180
:10256000084600F0AFF940F6FF731A465942084694
:1025700000F002F810BD00002DE9FC4104460D46B4
:1025800016461F46042001F0F5F880461548006CF9
:1025900004441448406C05441248006C0644114839
:1025A000406C074420B2ADF8000030B2ADF8040032
:1025B00028B2ADF8020038B2ADF80600684604F063
:1025C000E9FD50B100BF3B4632462946204600F0A7
:1025D00049FE04F09BFD0028F5D1404601F0CAF801
:1025E000BDE8FC81583D00202DE9FF4105460E461F
:1025F00017461C4601A800906A4621462846FFF768
:1026000091FF3A46314601A800F0B4F8BDE8FF81D9
:1026100000B500F027F90549898C084400B2034948
:1026200088840846008C488400BD0000583D002086
:102630002DE9FC4704460CB9BDE8FC8700F012F90F
:1026400007464B48B0F9228000F018F90646484882
:10265000808C801B00B24649888477E047F6FF7182
:10266000204600F0A9FA82465146204600F082FA40
:1026700005463F4890F82C0000F00300012807D0E1
:10268000022807D1284605EBD0714FEA610904E022
:10269000A94602E04FF0000900BF00BF3448408C5B
:1026A000A0EB090000B232494884ADF80000BDF843
:1026B00000002844401E00B2ADF804000846808C9B
:1026C000ADF80200BDF802003844401E00B2ADF87B
:1026D00006006A465146204600F0E2F9BDF80200C5
:1026E000234988845146204600F0C0F904442078EC
:1026F0000A2802D020780D281ED11D4890F82C0001
:1027000000F00300012802D0022805D100BF0FFA13
:1027100088F01749488404E01548008C144948841F
:1027200000BF00BF20780A280CD11148808C3844A3
:1027300000B20F49888405E0BDF80000284400B2CB
:102740000B494884207800B903E0641C20780028F5
:1027500084D100BF0648808C304400B2044988848C
:102760000846B0F92C0020F00300888500BF63E71D
:10277000583D002070B506460C46154620B2044967
:10278000488428B288843046FFF752FF70BD0000AD
:10279000583D00202DE9F04104460D4616460949F2
:1027A000B1F92C1041F0020000F03AF90746324628
:1027B00029462046FFF7DEFF384600F031F9BDE834
:1027C000F0810000583D00207CB504460D461646B9
:1027D0001348006C05441248406C064428B2ADF81A
:1027E000000021880844401E00B2ADF8040030B259
:1027F000ADF8020061880844401E00B2ADF8060042
:10280000684604F0C7FC48B100BF3246294620465E
:10281000FFF7A2FB04F07AFC0028F6D17CBD000093
:10282000583D002070B500F0D3FD054600F00AFECB
:102830000446204670BD000070B504460348806918
:102840004168204688470546284670BD583D00200F
:1028500070B500F0C3FD054600F0F4FD04462046C7
:1028600070BD000004498969497D034A9269D27D9F
:1028700001FB02F070470000583D00200020104985
:1028800091F82C1001F00C01042904D008290ED075
:102890000C2913D104E00A498969097D481E0DE01D
:1028A000074A9269117D01EBD172501006E0044A8B
:1028B0009269117D01EBD172501000BF00BF7047CB
:1028C000583D002070B506460C46304605F068FBC2
:1028D0000546204605F06CFB0543284670BD000008
:1028E00010B52E200649087000F0D8F8054805F00C
:1028F00067FB00F0C9FD044604F0AEFA204610BDA7
:10290000B0020020583D002010B570B371B36AB317
:10291000B1F90030B2F90040A34202DDB2F9003053
:1029200001E0B1F900300380B1F90230B2F90240A0
:10293000A34202DDB2F9023001E0B1F90230438076
:10294000B1F90430B2F90440A34202DDB1F9043018
:1029500001E0B2F904308380B1F90630B2F90640E3
:10296000A34204DDB1F9063003E00CE003E0B2F964
:102970000630C38010BD09B10B4600E013461C6849
:1029800004605B68436000BFF4E778B103880B44E0
:102990001BB2038083880B441BB28380438813449B
:1029A0001BB24380C38813441BB2C38070470246E6
:1029B000B2F90200B1F90630984213DCB1F9020015
:1029C000B2F9063098420DDCB2F90000B1F90430DA
:1029D000984207DCB1F90000B2F90430984201DCFA
:1029E000012070470020FCE710B50446204600F0A7
:1029F0006FFE10BD10B50446204600F09DFE10BDD0
:102A000070B50446204600F0B5FE0546284670BD68
:102A10000146024A906901B191617047583D00201A
:102A20000146034AB2F92C000AB2014B9A8570475D
:102A3000583D00200249096809B9014908607047FA
:102A4000A402002070B5044625680748C0690168E3
:102A50002846884706460448C06941682846884792
:102A600005442560304670BD583D00202DE9F041F9
:102A700005460E46002707E00748C069416828461A
:102A80008847044625442744301EA6F10106F3D1A9
:102A90003846BDE8F0810000583D00207047000036
:102AA0007CB505460E4614463048006878B10020D3
:102AB00004F070FB002858D000BF6A463146284613
:102AC00004F0AAFD04F022FB0028F6D14DE02068B6
:102AD000009060680190BDF800002549B1F84010F1
:102AE000084400B2ADF80000BDF802002049B1F87A
:102AF0004410084400B2ADF80200BDF804001C49BF
:102B0000B1F84010084400B2ADF80400BDF806006A
:102B10001749B1F84410084400B2ADF80600684601
:102B200004F038FB80B100BFBDF8000010494884B4
:102B3000BDF8020088846A463146284604F06CFDE0
:102B400004F0E4FA0028EFD10948408C0849B1F8B4
:102B50004010401A00B2064948840846808CB1F8FB
:102B60004410401A00B2024988847CBDC002002093
:102B7000583D002073B50C4600250098C0B10D48A3
:102B80008069006938B10B48806900692146026894
:102B9000009890477CBD07E06846FFF753FF064664
:102BA0003046FFF749FE0544601E041EF4DA00BFFC
:102BB0002846EFE7583D002073B50D4600240098E5
:102BC000C0B10D488069006938B10B48806900695F
:102BD00029464268009890477CBD08E06846FFF7A8
:102BE00031FF06460EB10A2E00D102E0641CAC4251
:102BF000F4DB00BF2046EFE7583D0020B0F900208D
:102C0000B1F900309A4201DA0A880280B0F9022054
:102C1000B1F902309A4201DA4A884280B0F90420C0
:102C2000B1F904309A4201DD8A888280B0F9062029
:102C3000B1F906309A4201DDCA88C280704710B5EA
:102C40000346B1F90000B2F90040A04202DDB1F93B
:102C5000000001E0B2F900001880B1F90200B2F9F9
:102C60000240A04202DDB1F9020001E0B2F9020027
:102C70005880B1F90400B2F90440A04202DDB2F973
:102C8000040001E0B1F904009880B1F90600B2F93E
:102C90000640A04202DDB2F9060001E0B1F90600EB
:102CA000D880B3F90400B3F90040A04201DA002053
:102CB00010BDB3F90600B3F90240A04201DA0020CA
:102CC000F6E70120F4E770B503460D4602E003F88D
:102CD000015B521E1AB103F003000028F7D19108DE
:102CE000A9B102F0030205EB054606EB06241846DF
:102CF00004E010C010C010C010C0091F0429F8DA89
:102D000001E010C0491E0029FBD1034600BF02E0CC
:102D100003F8015B521E002AFAD170BD70B504465B
:102D20000D462B4622462946204600F039FD2E202E
:102D30004FF0C041088000F09FFC0646304670BD51
:102D400000BFFEE70348008840F001000149088009
:102D500070470000020000200348008840F0010096
:102D600001490880704700000200002003480088E5
:102D700040F0010001490880704700000200002077
:102D80000348008840F001000149088070470000B6
:102D90000200002008B50121782001F037FC4FF433
:102DA0008060ADF8000048208DF8030069462C488B
:102DB000FFF724F94FF48050ADF8000048208DF85B
:102DC000030069462648FFF719F92020ADF80000F6
:102DD00048208DF8030069462148FFF70FF940208D
:102DE000ADF8000048208DF8030069461D48FFF744
:102DF00005F92020ADF8000048208DF80300694651
:102E00001848FFF7FBF80820ADF8000048208DF8BF
:102E1000030069461448FFF7F1F84FF40060ADF87D
:102E2000000048208DF8030069461048FFF7E6F8D7
:102E30004FF48060ADF8000048208DF8030069462B
:102E40000A48FFF7DBF81020ADF800008DF803000A
:102E500003208DF8020069460248FFF7CFF808BD4D
:102E6000000C014000180140001401400010014016
:102E700010B5002005490860FFF732FDFFF78AFF13
:102E8000FF2003490870487010BD00005C0000205E
:102E90006300002010B503F0EFF810BD10B503F08B
:102EA0005BFC10BD10B50446204600F020FB10BDB1
:102EB00010B50146C1F3C402C1F38523C1F3C44474
:102EC00004EB431000EBC22010BD000070B50546B6
:102ED0000E46144601231A463146284600F060FC8F
:102EE0000148048070BD0000000002602DE9FF4F22
:102EF0008BB0054690461F46DDF860A0DDF868906F
:102F00001C9E00200A908448006898B11B991D9867
:102F1000CDE90291CDE904601998CDE900A07E4881
:102F200000683B464246046828460C99A0470FB00B
:102F3000BDE8F08F0C983844401E089005EB08005F
:102F4000401E099019984AEA0000012878D1734878
:102F5000B0F906100C980C1A002C0ADD3F1B002F4C
:102F600000DCE4E76D48B0F906000C901B9804FB08
:102F700000666A48B0F90A100898441A002C03DD6C
:102F80003F1B002F00DCD2E76448B0F90810099815
:102F9000441A002C01DDA8EB040800245F48B0F9B6
:102FA0000400A84239DD5D48B0F90400441BA8EBD9
:102FB0000408B9F1040F1ED006DCB9F1010F0AD0E4
:102FC000B9F1020F28D10EE0B9F1080F1BD0B9F109
:102FD000100F21D11BE006EBE406E01005EBC00565
:102FE00004F0070418E006EBA406A01005EB80052A
:102FF00004F0030410E006EB6406601005EB4005E6
:1030000004F0010408E026442544002404E006EB13
:1030100044062544002400BF00BFB8F1000F00DCC7
:1030200085E71B991D983B464246CDE90091CDE9C5
:103030000264049028460C9900F061FA6AE0FFE708
:10304000C9F1080005900C9C002006905EE01998DC
:103050002044401E04903148B0F906100498814283
:103060004DDC2E48B0F90A00A04248DB0020039056
:103070000196079502903EE0039838B901980078D0
:103080000A900198401C01900820039005990A9825
:1030900040FA01FB0A9800FA09F0C0B20A900398BE
:1030A000A0EB09000390BBF1000F04D11B48007B8B
:1030B00000F00200C8B91948408800901D9828B156
:1030C0001D9830F81B001549488002E01348A0F80D
:1030D00002B007985044421E2146049B079800F016
:1030E000C1F80E490098488000BF0298401C029029
:1030F00007985044079002984045BDDB00BF0698F2
:10310000401C0690199804441B9806440698B8423F
:103110009DDB00BF00BF0AE7C0020020583D002031
:1031200070B504460D4616461248B0F90600A8428E
:1031300000DD70BD0F48B0F90A00A84200DAF8E7D8
:103140000C48B0F90400A04202DD0A48B0F904407E
:103150000848B0F90800B04202DA0648B0F9086041
:10316000A64200DAE5E732462946204600F01AFA80
:1031700000BFDEE7583D002070B504460D461548F7
:10318000B0F90600A84200DD70BD1248B0F90A008F
:10319000A84200DAF8E70F48B0F90400A04200DDC9
:1031A000F2E70C48B0F90800A04200DAECE7094861
:1031B000007B00F0010020B12946204600F04CFAC7
:1031C00005E0044842882946204600F03BFA00BF4B
:1031D000DAE70000583D00202048406940F4807044
:1031E0001E49486100204FF02041086048601C499A
:1031F00008604FF02040006840F480504FF02041BC
:1032000008600846006840F480400860084600688E
:1032100040F0100008600846406848600846406872
:1032200040F0010048600846406840F47060486023
:103230000B480068C1F8040109480068C1F804019E
:103240000846D0F8040140F44070C1F80401084673
:10325000006840F001000860704700000010024064
:10326000040100A02DE9F04104460D4616461F4614
:103270001748B0F90400A04202DD1548B0F9044037
:103280001348B0F90800B04202DA1148B0F90860FA
:10329000A64201DABDE8F0810D48B0F90600A84267
:1032A00002DD0B48B0F906500948B0F90A00B842EF
:1032B00002DA0748B0F90A70AF4200DAEAE73B46A3
:1032C00032462946204600F08DF900BFE2E70000B3
:1032D000583D002008B50121682001F097F94FF40E
:1032E0000050ADF8000003208DF8020010208DF88A
:1032F000030069463348FEF781FE0220ADF8000066
:1033000003208DF8020010208DF8030069462E4836
:10331000FEF774FE4CF6B370ADF8000003208DF894
:10332000020018208DF8030069462848FEF766FE63
:103330004FF68070ADF8000003208DF802001820D1
:103340008DF8030069462048FEF758FE80211F488B
:10335000FEF7EAFE01211D48FEF7E6FE02211B48AA
:10336000FEF7E2FE4FF480411848FEF7DDFE4FF411
:1033700000411648FEF7D8FE80211348FEF7D4FE20
:103380004FF480711048FEF7CFFE4FF400710E48E5
:10339000FEF7CAFE4FF480610B48FEF7C5FE02211E
:1033A0000948FEF7BFFE10210848FEF7BDFE2021A8
:1033B0000648FEF7B9FE4FF400510248FEF7B4FE8E
:1033C00008BD0000000C014000180140001401403D
:1033D0000148008870470000583D0020014840889F
:1033E00070470000583D00204FF4A070704710B5A2
:1033F0000446204600F002F810BD00002DE9F0411F
:10340000044614B90020BDE8F081A06808B9002086
:10341000F9E72068B0F5807F01DD0020F3E726683A
:10342000A768002507E057F82500FFF73BFD044992
:1034300021F815006D1CB542F5DB0148E3E70000FB
:10344000A83D002010B50446204600F0EFF810BD5E
:1034500030B5014601F01F03C1F34512C1F3C42486
:10346000C4EB04201F25B0FBF5F4C2EB02203F257E
:10347000B0FBF5F2C3EB03201F25B0FBF5F304EB23
:10348000022000EB034030BD10B5002400F04CF9E1
:1034900000F0D2F8044300F029F8042000F06AF9A3
:1034A00040F6FF731A4600210846FFF7DBFE0020B6
:1034B00000F060F900F0C5F8204610BD10B5FFF728
:1034C00009FFFFF789FE00F0EFF800F0DDF900F0EA
:1034D000D7F9002403E01F2003490880641CB4F5D9
:1034E000963FF8D310BD000000000260704770B531
:1034F00004462046FFF7DCFC0546284670BD2DE952
:10350000FC5F82460D4616469846DDF830B0DDF881
:103510003890109F002440E0BBF1040F20D006DC5F
:10352000BBF1010F0AD0BBF1020F32D10FE0BBF1AA
:10353000080F1ED0BBF1100F2BD122E06119CDE98D
:1035400000674A4650460F9B04F0B6F821E0611927
:10355000CDE900674A4650460F9B04F019F918E080
:103560006119CDE900674A4650460F9B04F0C4F943
:103570000FE0611933464A465046009704F070FA4E
:1035800007E0611933464A4650460097FEF75CFB58
:1035900000BF00BF0D988144641C4445BCDBBDE8FE
:1035A000FC9F000070B504460E4615460C48007B93
:1035B00000F0010040B104E03146204600F04CF834
:1035C000641CAC42F8DD09E006E00548428831465B
:1035D000204600F037F8641CAC42F6DD70BD0000F8
:1035E000583D00202DE9F04106460C4617461D4681
:1035F00005E03A4621463046FFF7D4FF641CAC4252
:10360000F7DDBDE8F08170B504460D462946204639
:10361000FFF784FB86B2304670BD002101804180F7
:1036200040F23F118180EF21C180704710B5044600
:103630002046FFF70DFF10BD10B5FFF73FFF00203C
:1036400010BD704770B504460D46164632462946F1
:103650002046FFF73BFC70BD70B504460D46294679
:103660002046FFF7D0FF86B2C6F58030421E2946BD
:103670002046FFF7E7FF70BD10B5002100230022B0
:103680002E204FF0C044208006480188018802881F
:103690000388C812C0029C1240EA441040EAE220AB
:1036A00010BD00000000026010B502210748FEF7BF
:1036B00039FD42F21070FEF7BEFA02210348FEF710
:1036C00033FD42F6E060FEF7B6FA10BD0018014087
:1036D00070B504460648406BA04207D004484463D6
:1036E0002046FFF7DFFB054600F004F870BD000040
:1036F000583D002010B50446002004F0FDFB0249AF
:1037000021F8104010BD0000583D00201CB50446B3
:103710006846FFF782FF6A4621460248FFF78FFAA4
:103720001CBD00005C3D002010B50248FFF775FF8E
:1037300010BD00005C3D002070B504460648006BDB
:10374000A04207D0044804632046FFF7ABFB0546C0
:1037500000F004F870BD0000583D002010B504468C
:10376000012004F0C9FB024921F8104010BD0000FF
:10377000583D002010B50146084A107B127B4A4094
:1037800002F004023AB1054B1A885B88034C23808F
:1037900023465A8000BF014B197310BD583D0020CD
:1037A00030B5354C24788CBB2A244FF0C0452C8092
:1037B0000412324D2C800412A0EB04242C808418B7
:1037C000641EC4F30F242C808418641E85186D1E9B
:1037D0002D12A4EB0524294D2C802B2465072C8069
:1037E0000C12264D2C800C12A1EB04242C80CC183A
:1037F000641EC4F30F242C80CC18641ECD186D1EDB
:103800002D12A4EB05241D4D2C8031E0FFE72B2465
:1038100065072C800412194D2C800412A0EB04249F
:103820002C808418641EC4F30F242C808418641E1A
:1038300085186D1E2D12A4EB0524104D2C802A2412
:103840004FF0C0452C800C120C4D2C800C12A1EBBB
:1038500004242C80CC18641EC4F30F242C80CC18B4
:10386000641ECD186D1E2D12A4EB0524034D2C8073
:103870002C24E5062C8030BD58000020000002609A
:103880002C20C1060880704700B5CF204FF0C04102
:103890000880002077490880812008803020088037
:1038A000ED204FF0C0410880642072490880032059
:1038B00008801220088081200880E8204FF0C04155
:1038C000088085206B4908801020088078200880B7
:1038D000CB20410708803920664908802C200880C9
:1038E000002008803420088002200880F7204FF054
:1038F000C041088020205F490880EA204FF0C04185
:10390000088000205B4908800880B1204FF0C0414A
:1039100008800020574908801B200880B620010736
:1039200008800A2053490880A2200880C020C105D1
:10393000088035204F490880C1204FF0C0410880E1
:1039400011204C490880C5204FF0C0410880452017
:10395000484908800880C7204FF0C0410880A22055
:1039600044490880F2204FF0C041088000204149BE
:10397000088026200107088001203E490880E020B9
:103980004FF0C04108800F203A4908802620088067
:10399000242008800B2008800E2008800920088041
:1039A00054200880A8200880462008800C20088029
:1039B00017200880092008800F2008800720088031
:1039C00000200880E1204FF0C041088000202949F4
:1039D0000880192008801B200880042008801020FF
:1039E0000880072008802A20088047200880392086
:1039F0000880032008800620088008803020088086
:103A0000382008800F2008803620010708806820B1
:103A1000184908802A204FF0C0410880002015492D
:103A200008800880012008803F2008802B20410763
:103A3000088000200F49088008800880EF20088057
:103A40003A204FF0C041088055200A4908801120D3
:103A50004FF0C04108804FF49660FEF7ECF8292043
:103A60004FF0C0410880002002F0BAFB2C20C106B4
:103A7000088000BD0000026000BFFEE77047000044
:103A800070B5002100230F22C47804B3154C2468BC
:103A900004F4E064C4F5E064210AC1F10403CA40FF
:103AA000447804FA03F184781440214309010E4C50
:103AB0000678A155047804F01F050124AC40057870
:103AC0006D11AD0005F1E025C5F8004109E004786D
:103AD00004F01F050124AC40044D0678761145F82A
:103AE000264070BD0CED00E000E400E080E100E065
:103AF00002490143024A1160704700000000FA05C4
:103B00000CED00E030B502460C46134602E020CB37
:103B100005B104E0201EA4F10105ACB2F7D100BF4D
:103B200009B9642030BD6420604390FBF1F080B29D
:103B3000F8E7000010B500204449087044490870B7
:103B40004449087044490870444908804449088041
:103B50004449088044490860444908604449086071
:103B600044490860444908604448454908600024C5
:103B700005E00020434941F82400601CC4B2102C29
:103B8000F7DB002423E0002004EB84013B4A42F8E9
:103B9000210004EB840102EB8101886004EB8401C5
:103BA00002EB81018881082004EB840102EB810192
:103BB0008873FF2004EB840102EB8101C8730020AD
:103BC00004EB840102EB81010882601CC4B2102C5A
:103BD000D9DB00240DE0601C00EB8000274901EBDD
:103BE000800004EB8401254A02EB81014860601CDF
:103BF000C4B20F2CEFDB00212048C0F830110024A4
:103C00000CE0601C00EB40001F4901EB800004EB5E
:103C100044011D4A42F82100601CC4B20F2CF0DBA5
:103C200000201949C1F8B4000846184908600F235C
:103C3000174AA2F50071174800F090FA0E23164AB1
:103C4000A2F50071154800F089FA10BD300000207F
:103C50003100002032000020330000203600002018
:103C6000380000203A0000203C00002040000020E6
:103C700044000020480000204C00002038140020A0
:103C800050000020F8130020781500205400002078
:103C9000080F002089420008080D00209D420008FE
:103CA00005484FF0E021486100208861084600691E
:103CB00040F00700086170473F7E05000448007827
:103CC000FF2804D202480078401C01490870704760
:103CD0003100002010B50024FCF7B8FA044618485B
:103CE000007820B116480078401E15490870144825
:103CF000007808BB1348007830B1124800781249A8
:103D0000085C1249087008E00F480E49098800EB6A
:103D10002120007808300D4908700C4800780C49C3
:103D20000978884208D00B480849097850F82100E2
:103D300009490860FCF796FA2046FCF78BFA10BD9B
:103D400031000020360000209C8100083300002054
:103D500032000020F8130020480000202DE9F04137
:103D600004460027FCF772FA07462079032805D09D
:103D70003846FCF76FFA0120BDE8F081E08838B3DF
:103D8000A07918B1A0791B490E5C06E0E0881949BA
:103D900001EB202000780830C6B2174850F82650B2
:103DA000E088298A8843E0800020A881A860A87B59
:103DB00020F00100A873A87B28B9288A0F49098838
:103DC00008430E4908803846FCF744FA0020D3E740
:103DD00020894FF6FF71884207DA2089401C208134
:103DE0003846FCF737FA0020C6E73846FCF732FAC7
:103DF0003220C1E79C810008F81300203600002023
:103E000070B5054600260F2D01DB2A2070BDFCF79A
:103E10001DFA0646114850F8254024B93046FCF7F3
:103E200019FA6420F2E7A07B00F0080088B1A07BBB
:103E300020F00800A07338B9A08928B9208A084961
:103E400009880843064908803046FCF703FA002039
:103E5000DCE73046FCF7FEF96520D7E7F8130020D1
:103E60003600002010B50024FCF7F0F90446144891
:103E7000007808BB1348007830B112480078124926
:103E8000085C1249087008E00F480E49098800EBE9
:103E90002120007808300D4908700C4800780C4942
:103EA0000978884208D00B480849097850F8210061
:103EB00009490860FCF7D1F92046FCF7CBF910BDA1
:103EC00031000020360000209C81000833000020D3
:103ED00032000020F81300204800002070B505468D
:103EE0000026FCF7B3F9064609480468006820B1CB
:103EF000074800680068064908603046FCF7AAF9E0
:103F000024B1032020710020E0802581204670BD6F
:103F1000540000202DE9F04104460E4615460027C6
:103F2000FCF794F907462079032805D03846FCF7BA
:103F300091F90120287062E02089002808DD20899D
:103F4000401E20813846FCF785F90020287056E095
:103F50002EB93846FCF77EF90A2028704FE0294830
:103F60000078002805DD3846FCF774F90220287037
:103F700045E025480068807B40F00100224909683F
:103F800088732148006884601F48006886811E4845
:103F90000068018A1D48008888431C490880E08821
:103FA00019490968098A0843E0803846FCF752F944
:103FB000FFF758FFFCF74AF9074613480068807B73
:103FC00000F0010090B100200F49096888730E4984
:103FD00009688860E0880C490968098A8843E0809C
:103FE0003846FCF737F90A20287008E00020064917
:103FF000096888603846FCF72DF900202870BDE874
:10400000F0810000310000204C000020360000202C
:104010002DE9F04104460027FCF718F907462079FE
:10402000032805D03846FCF715F90120BDE8F081DA
:10403000E08848B3A07918B1A0791C490E5C06E06D
:10404000E0881A4901EB202000780830C6B21848F1
:1040500050F82650E088298A8843E0800020A88113
:10406000A860A87B20F00100A873A87B28B9288A43
:104070001049098808430F4908803846FCF7EAF8D8
:10408000FFF7F0FE0020D1E720894FF6FF7188424C
:1040900007DA2089401C20813846FCF7DBF8002035
:1040A000C4E73846FCF7D6F83220BFE79C81000809
:1040B000F81300203600002010B51648007838BBF1
:1040C0001548007830B1144800781449085C144948
:1040D000087008E011481049098800EB2120007899
:1040E00008300F4908700E480078401C0D490870D0
:1040F0000D480B49097850F821000C490860084622
:1041000000680B490860012002490870FCF7AFF80D
:1041100010BD000030000020360000209C81000807
:104120003300002032000020F81300204800002057
:104130004C00002010B5022000F0F6F900200549DF
:104140000860C82000F0F0F90248006802490860E1
:1041500010BD0000400000203C0000202DE9F04789
:104160000746884691461E46102E02DB2A20BDE8EF
:10417000F087404850F82600002879D129F007043C
:104180004FF08071201F04460160201F0446076025
:104190006FF00101201F044601604FF01231201F13
:1041A000044601604FF00331201F044601604FF0C8
:1041B0000231201F044601604910201F044601609F
:1041C0000021201F044601604FF01131201F0446DA
:1041D00001604FF01031201F044601604FF009319B
:1041E000201F044601604FF00831201F0446016083
:1041F0004FF00731201F044601604FF00631201FA9
:10420000044601604FF00531201F044601604FF065
:104210000431201F044601601748056835B316496C
:10422000686808602C600020A860A881A873EE73FD
:10423000124830F8160028820E4840F826500F48E1
:1042400030F816000E49098808430D49088003E03C
:104250000021201F044601604445F9D80948007830
:1042600008B1FFF7FFFD002081E701E046207EE76F
:1042700028207CE7F8130020500000207C810008F3
:10428000360000203000002000BF03480068401CBA
:1042900001490860F9E7000040000020FFF74AFFED
:1042A0006548806A401C644988620723634AA2F516
:1042B00000716348FFF752FF5F48C06A401C5E49C7
:1042C000C86202235F4AA2F500715F48FFF746FF0C
:1042D0005948006B401C584908630846406B401C15
:1042E00048630423594AA2F500715948FFF736FF85
:1042F0005148806B401C504988630846C06B401C85
:10430000C8630846006C401C08640B23514AA2F5A0
:1043100000715148FFF722FF4748406C401C464956
:1043200048640846806C401C88640846C06C401C89
:10433000C8640823494AA2F580614948FFF70EFF87
:104340001F210020FDF7C4FD74E0002045490860EE
:10435000C82000F0E9F84348046843480068A042D8
:104360000DD9B4F5806F0AD93F480068041B3E4858
:104370000068800AB4FBF0F03C49088002E00020AD
:104380003A49088039480088B0F52F7F05DB384866
:10439000008840F002003649088080213548FFF748
:1043A000B1FB3549088080213448FFF7ABFB344925
:1043B000088080213348FFF7A5FB3349088080211E
:1043C0003248FFF79FFB324908804FF48071314833
:1043D000FFF798FB3049088080213048FFF792FBB7
:1043E0002F49088080212F48FFF78CFB2E49088039
:1043F0002B480088552817DA1F480088552813DAFB
:104400001F48008855280FDA1F48008855280BDA06
:104410001F480088552807DA1F480088552803DA06
:1044200008460088552805DB1148008840F0040044
:104430000F49088089E700000813002008050020C4
:10444000091F0008080700206D1D0008080900204A
:10445000791E0008080B0020951D00080813002095
:10446000491E0008400000203C00002038000020C9
:1044700002000020080300200A0000200805002098
:104480000C000020080700200E0000200809002072
:1044900010000020080F002016000020080B00204C
:1044A00012000020080D0020140000202DE9F0412A
:1044B000044600270F2C04DBFF2C02D02A20BDE885
:1044C000F081FBF7C3FE0746FF2C04D113480068B8
:1044D000C47B012607E011480068C07BA04201D1DF
:1044E000012600E000260E4850F8245025B9384631
:1044F000FBF7B0FE5A20E2E7298A0A480088884381
:1045000008490880A87B40F00800A8733846FBF7EC
:10451000A1FE0EB1FFF7A6FC0020D0E74C00002062
:10452000F81300203600002070B504460025002C4A
:1045300012DDFBF78BFE054608480068018A084833
:10454000008888430649088004480068848128461A
:10455000FBF780FEFFF786FC70BD00004C000020DA
:1045600036000020114816E0818989B18189491EF1
:1045700089B2818161B9817B01F0080111B101210A
:10458000818105E0018A0A4A12881143084A118094
:10459000406800B902E0C17BFF29E5D100BF0549B1
:1045A0000968491C034A1160704700003814002054
:1045B00036000020440000200348008840F001003D
:1045C00001490880704700000200002029B1064A16
:1045D000D2690243044BDA6104E0034AD2698243A0
:1045E000014BDA61704700000010024029B1064A11
:1045F00012690243044B1A6104E0034A12698243C0
:10460000014B1A61704700000010024029B1064AB0
:1046100092690243044B9A6104E0034A926982431F
:10462000014B9A61704700000010024029B1064A10
:10463000D2680243044BDA6004E0034AD268824342
:10464000014BDA60704700000010024030B50021D5
:104650000022002400232D4D6D6805F00C0121B1CE
:10466000042905D0082923D105E0294D056022E061
:10467000274D05601FE0254D6D6805F47012234D30
:104680006D6805F48034022505EB92421CB9214D7A
:10469000554305600BE01D4D6D6805F400351DB1F7
:1046A0001C4D5543056002E0194D5543056002E07D
:1046B000174D056000BF00BF144D6D6805F0F00197
:1046C0000909154D6B5C0568DD4045600F4D6D684F
:1046D00005F4E061090A104D6B5C4568DD408560BA
:1046E0000A4D6D6805F46051C90A0B4D6B5C456855
:1046F000DD40C560054D6D6805F44041890B074DEF
:104700006B5CC568B5FBF3F5056130BD0010024078
:1047100000127A0000093D001C0000202C0000203F
:104720000348008840F001000149088070470000FC
:10473000020000202DE9F0410C48857850261E2704
:10474000DFF82C80002400BF0CE0C4EB041206EB61
:10475000420211B238F8140002233AB2FDF744FFC6
:10476000601CC4B2AC42F0DBBDE8F0814817002009
:10477000F81B00202DE9F0410B4890F8CA60AA24EC
:10478000462500F1CC074FF00008008D28B12A46DD
:10479000214606A0FDF7EEFF04E02A46214607A0C9
:1047A000FDF7E8FFBDE8F081181F002020205945E3
:1047B00053202020202020202000000020204E4FC9
:1047C00020202020202020202000000030B502469C
:1047D0000B460020002100BF1EE000EBC004214D6D
:1047E00015F82440012C15D100EBC00405EB84041E
:1047F00064881D4D2D78AC420CD100EBC004194DDE
:1048000005EB8404A488184D6D78AC4202D14C1C91
:10481000E1B25054441CE0B20A28DEDB11700021E2
:1048200000201AE0114C04EB40142478012C12D122
:104830000E4C04EB401464880B4D2D78AC420AD129
:104840000A4C04EB4014A488074D6D78AC4202D1A9
:104850004C1CE1B25854441CE0B20428E2DB19704D
:1048600030BD00007400002063000020DC01002047
:104870000C48008800B114E00A48408888B909480B
:10488000008950B10848007818B100200649087026
:1048900007E001200449087003E00248C08800B91D
:1048A00000BF7047181F00206900002010B50C4899
:1048B00000780C490978884203D0094800780949F2
:1048C00008700748407807494978884205D004486D
:1048D00040780449487000F007F800F091F810BDE6
:1048E000600000206300002070B5002500243F48D0
:1048F000FEF77AF86FF07F40FEF77CF83C493D48C0
:10490000FFF764FFFDF72AFE00BF69E03949681C24
:104910000C5C04EBC400384901EB8000C06930B185
:1049200004EBC401344A02EB8101C869804704EBFF
:10493000C400314901EB8000406938B104EBC40187
:104940002D4A02EB81014869FEF762F804EBC400CE
:10495000294901EB8000C06888B104EBC4030E460E
:1049600006EB83031A8904EBC40306EB8303D9889F
:1049700004EBC40306EB8303D868FDF725FF04EBC3
:10498000C4001D4901EB8000008B072818DA04EBF6
:10499000C4030E4606EB83035A8A04EBC40306EBFA
:1049A0008303198A04EBC40306EB83031B8B03EB1D
:1049B0004306C6EB4313114E06EB4300FDF7DAFE48
:1049C00004EBC4000C4901EB8000006A30B104EB39
:1049D000C401094A02EB8101086A8047681CC5B21C
:1049E00004480078A84291DC70BD00000033FF004D
:1049F0006C00002038160020740000209C82000803
:104A000070B500250024012540E02348445D23487B
:104A100000EB4410C06828B1204901EB4411C8687C
:104A2000FDF7F6FF1D4800EB4410806920B11B49DB
:104A300001EB441188698047184800EB4410406935
:104A4000C0B104EBC403164E06EB83035A8A04EB91
:104A5000C40306EB8303198A04EBC40306EB830348
:104A60001B8B03EB4306C6EB43130E4E06EB4300D2
:104A7000FDF780FE094800EB4410C06920B10749EA
:104A800001EB4411C8698047681CC5B20248007830
:104A9000A842BADA70BD00006C000020DC010020E2
:104AA000740000209C8200080348008840F0010048
:104AB00001490880704700000200002010B54FF443
:104AC00080616C48FDF725FB012802D001206A496E
:104AD00008704FF480616748FDF71BFB012808D080
:104AE00065480078012804D16449088000206249A3
:104AF000087020215F48FDF70CFB012802D001203F
:104B00005D49487020215B48FDF703FB012808D070
:104B100059484078012804D1584948800020564916
:104B200048704FF480515348FDF7F3FA012802D042
:104B30000120514908714FF480514E48FDF7E9FAC0
:104B4000012808D04C480079012804D14B4908813C
:104B500000204949087140214948FDF7DAFA012847
:104B600002D001204449887140214548FDF7D1FA1F
:104B7000012808D040488079012804D13F49488164
:104B800000203D49887120213D48FDF7C2FA0128E7
:104B900002D001203849487220213948FDF7B9FA7E
:104BA000012808D03448407A012804D133490882CA
:104BB00000203149487208213248FDF7AAFA01283D
:104BC00002D001202C49087208212E48FDF7A1FAD5
:104BD000012808D02848007A012804D12749C88133
:104BE0000020254908724FF400612748FDF791FA2B
:104BF000012802D00120204988724FF40061224828
:104C0000FDF787FA012808D01B48807A012804D1D3
:104C10001A49C8800020184988724FF480611A48E8
:104C2000FDF777FA012802D001201349C8714FF42B
:104C300080611548FDF76DFA012808D00E48C0794B
:104C4000012804D10D49888000200B49C8710F4804
:104C50000088142190FBF1F201FB12000A2804DD08
:104C600010210748FDF760FA03E010210448FDF722
:104C700059FA10BD000C0140F4250020181F002037
:104C800000180140001401400010014008000020FD
:104C900070B50126002515E005EB45000B4901EB39
:104CA0008004207800B90BE0607840B9A188608862
:104CB00000F09EFE10B10520607000E0002600BFED
:104CC000681CC5B2142DE7DB304670BD58240020A7
:104CD00010B5044600200549086000F0AFF900F067
:104CE000E9FA204600F092FB10BD0000900200207F
:104CF0002DE9F04106463768002496E004EB4400B5
:104D00004C4901EB8005287800B98CE0A868B842CE
:104D100000D088E0A988688800F06AFE28B10520E4
:104D2000687045480088688004E000206870424848
:104D3000008868801CB9304600F087FB70E0012CC9
:104D400003D1304600F082FB6AE0022C03D13046EA
:104D500000F07DFB64E0032C03D1304600F063FBE0
:104D60005EE0042C03D1304600F07AFB58E0052CBD
:104D700003D1304600F061FB52E0062C03D13046EF
:104D800000F059FB4CE0072C03D1304600F063FBE8
:104D900046E0082C03D1304600F060FB40E0092CCF
:104DA00003D1304600F055FB3AE00A2C03D13046DF
:104DB00000F053FB34E00B2C03D1304600F03FFBF6
:104DC0002EE00C2C03D1304600F03CFB28E00D2CEB
:104DD00003D1304600F037FB22E00E2C03D13046E1
:104DE00000F02EFB1CE00F2C03D1304600F034FB0A
:104DF00016E0102C03D1304600F031FB10E0112CEE
:104E000003D1304600F026FB0AE0122C03D13046D5
:104E100000F014FB04E0132C02D1304600F005FB37
:104E20000120BDE8F081601CC4B2142CFFF666AF0F
:104E30000020F6E7582400200600002070B5064642
:104E40007B48408D18B900207A49087602E001209D
:104E5000784908767648808D20B90020754981F818
:104E6000240003E00120734981F824007048C08DBC
:104E700020B900206F4981F8300003E001206D491E
:104E800081F830006A48008E20B90020694981F815
:104E90003C0003E00120674981F83C006448408EF3
:104EA00020B90020634981F8480003E001206149EE
:104EB00081F848005E48808E20B900205D4981F865
:104EC000540003E001205B4981F854005848C08E2B
:104ED00020B90020574981F8600003E001205549BE
:104EE00081F860005248008F20B90020514981F8B4
:104EF0006C0003E001204F4981F86C004C48408F62
:104F000020B900204B4981F8780003E0012049498D
:104F100081F87800002486E004EB4400454901EB69
:104F20008005287800B97CE06878022802D100204A
:104F300068700DE06878012800D072E0A988688860
:104F400000F056FD18B13C480088688000E068E039
:104F5000A86830604FF0FF307060B0601CB9304618
:104F600000F086FA55E0012C03D1304600F079FAC2
:104F70004FE0022C06D12E48408D30B3304600F071
:104F8000C1FA46E0032C06D12948808DE8B13046AD
:104F900000F0E4FA3DE0042C06D12548C08DA0B114
:104FA000304600F007FB34E0052C06D12048008E87
:104FB00058B1304600F02AFB2BE0062C06D11C48E5
:104FC000408E10B1304600F057FB22E0072C06D18E
:104FD0001748808EE8B1304600F07AFB19E0082CC3
:104FE00006D11348C08EA0B1304600F09DFB10E002
:104FF000092C06D10E48008F58B1304600F0C0FB96
:1050000007E00A2C05D10A48408F10B1304600F065
:10501000E3FB31460A20FBF7BFFB08B1062070BD59
:1050200000BF601CC4B20B2CFFF676AF0020F6E781
:10503000081B0020482500200600002010B5002194
:105040000DE0002201EB4103854C04F823200522EA
:1050500001EB410304EB83035A704A1CD1B21429BB
:10506000EFDB7F487F4A8260012202700522427096
:105070007D4A12884280142282800C307B4A8260F2
:105080000122027005224270774A1288428014225F
:1050900082800C30764A82600122027005224270C2
:1050A000714A12884280642282800C30714A826088
:1050B00001220270052242706B4A128842804FF42E
:1050C000C87282800C306C4A826001220270052214
:1050D0004270654A12884280282282800C30674ADA
:1050E000826001220270052242705F4A128842806B
:1050F0004FF4C87282800C30614A826001220270D3
:1051000005224270584A128842804FF4C872828049
:105110000C305C4A82600122027005224270524AC1
:10512000128842804FF4C87282800C30564A8260E6
:1051300001220270052242704B4A128842802822C6
:1051400082800C30514A8260012202700522427036
:10515000454A12884280C82282800C304C4A8260C4
:1051600001220270052242703F4A128842804FF4A9
:10517000C87282800C30474A826001220270052288
:105180004270394A128842804FF4C87282800C30D3
:10519000414A82600122027005224270324A12881E
:1051A00042804FF4C87282800C303C4A82600122F7
:1051B0000270052242702C4A128842804FF4C87255
:1051C00082800C302E4A82600122027005224270D9
:1051D000254A128842804FF4C87282800C30304ACF
:1051E000826001220270052242701F4A12884280AA
:1051F0004FF4C87282800C302A4A82600122027009
:1052000005224270184A128842804FF4C872828088
:105210000C30254A82600122027005224270124A37
:10522000128842804FF4C87282800C301F4A82601C
:1052300001220270052242700B4A128842804FF40C
:10524000C87282800C301A4A8260012202700522E4
:105250004270054A128842804FF4C872828010BDA5
:10526000582400200420806706000020041880676E
:1052700004F8F6C704A8F7C70488F7C704F867C797
:1052800004F85FC70470F7C70490F7C70478F7C73E
:105290000448F7C70450F6C70458F6C70468F6C7B1
:1052A00004B0F7C704B8F7C70428F7C704A0FFC7BE
:1052B0000478806710B500210CE0002201EB410367
:1052C000434C04F8232001EB410304EB83035A70A1
:1052D0004A1CD1B20B29F0DB3D483E4A82600122D4
:1052E000027042703C4A12884280C82282800C3090
:1052F0003A4A82600122027000224270364A1288C5
:1053000042804FF6FF7282800C30354A8260012263
:1053100002704270304A12884280C82282800C306B
:105320002F4A82600122027042702B4A128842800A
:10533000C82282800C302A4A8260012202704270A8
:10534000254A12884280C82282800C30244A82601A
:10535000012202704270204A12884280C822828054
:105360000C301F4A82600122027042701A4A128871
:105370004280C82282800C30194A82600122027069
:105380004270154A12884280C82282800C30144A2A
:1053900082600122027042700F4A12884280C82245
:1053A00082800C300E4A82600122027042700A4AEA
:1053B00012884280C82282800C30094A8260012211
:1053C00002704270044A12884280C822828010BD56
:1053D000482500200C0150C7060000200C71806792
:1053E000C4B3A29110B50A4600EB4003064C04EB8F
:1053F0008303996821F4FF6141EAC20100EB400395
:1054000004EB8303996010BD4825002030B50546A4
:10541000002405E029462046FFF7E4FF601CC4B2E3
:105420000B2CF7DB30BD00BF704710B5044620469B
:10543000FBF770FD10BD00BF7047704770477047A5
:1054400000BF7047704700BF70477047704700BF8C
:105450007047704770477047704770477047704794
:10546000704710B504462046FBF774FD10BD0000E0
:105470002349097819B90421214A117002E0002159
:105480001F4A11701E49097811B9CB21017132E010
:105490001B490978012902D1CD2101712BE018495E
:1054A0000978022902D1D321017124E01449097835
:1054B000032902D1002101711DE011490978042955
:1054C00002D1E521017116E00D490978052902D1C3
:1054D000E92101710FE00A490978062902D1DA2190
:1054E000017108E006490978072902D1EB21017111
:1054F00001E000210171FE2141710021817170479D
:10550000940200201349D1F89610042202EBC10145
:105510000160114991F8681101710F4991F86A1100
:1055200041710D4991F86C1181710B4991F86E111F
:10553000C171094991F870110172074991F872110E
:105540004172054991F874118172034991F87611FD
:10555000C172704748170020F81B00201349D1F88A
:105560009C10042202EBC1010160114991F87C11E9
:1055700001710F4991F87E1141710D4991F8801127
:1055800081710B4991F88211C171094991F8841117
:105590000172074991F886114172054991F8881105
:1055A0008172034991F88A11C1727047481700202F
:1055B000F81B00201349D1F8A210042202EBC1010C
:1055C0000160114991F8901101710F4991F8921100
:1055D00041710D4991F8941181710B4991F896111F
:1055E000C171094991F898110172074991F89A110E
:1055F0004172054991F89C118172034991F89E11FD
:10560000C1727047181F0020F81B00201749D1F8FD
:10561000A810042202EBC101154AD1601146896825
:10562000042202EBC1010160124991F8A411017139
:10563000104991F8A61141710E4991F8A811817194
:105640000C4991F8AA11C1710A4991F8AC11017283
:10565000084991F8AE114172064991F8B011817272
:10566000044991F8B211C172704700004817002038
:10567000CC250020F81B00201349D1F8AE100422DD
:1056800002EBC1010160114991F8B81101710F4994
:1056900091F8BA1141710D4991F8BC1181710B4912
:1056A00091F8BE11C171094991F8C0110172074901
:1056B00091F8C2114172054991F8C41181720349F0
:1056C00091F8C611C172704748170020F81B0020DE
:1056D0001349D1F8B210042202EBC1010160114953
:1056E00091F8CC1101710F4991F8CE1141710D491A
:1056F00091F8D01181710B4991F8D211C17109490A
:1057000091F8D4110172074991F8D61141720549F7
:1057100091F8D8118172034991F8DA11C17270477A
:1057200048170020F81B00201349D1F8BA100422B2
:1057300002EBC1010160114991F8E01101710F49BB
:1057400091F8E21141710D4991F8E41181710B4911
:1057500091F8E611C171094991F8E8110172074900
:1057600091F8EA114172054991F8EC1181720349EF
:1057700091F8EE11C172704748170020F81B002005
:105780001349D1F8C010042202EBC1010160114994
:1057900091F8F41101710F4991F8F61141710D4919
:1057A00091F8F81181710B4991F8FA11C171094909
:1057B00091F8FC110172074991F8FE1141720549F7
:1057C00091F800128172034991F80212C172704778
:1057D00048170020F81B00201349D1F8C6100422F6
:1057E00002EBC1010160114991F8081201710F49E2
:1057F00091F80A1241710D4991F80C1281710B490F
:1058000091F80E12C171094991F8101201720749FD
:1058100091F812124172054991F8141281720349EC
:1058200091F81612C172704748170020F81B00202B
:1058300010B500244021224801F0FEF840F2255125
:105840001F4801F01BF9002838D000201D490880AE
:105850001B4801F0CFF9C4B21B48007810BB1B48AD
:10586000008808B9012C12D018480088012819D1E5
:105870001748B0F87A00A04209D01548B0F87C006B
:10588000A04204D01248B0F87E00A0420AD11148CC
:10589000847001200C49087000200F4908700F49DE
:1058A00008800BE00848007840B10748017800788C
:1058B000401C054A10700748801C445410BD00006D
:1058C000003801405E02002074020020081B002006
:1058D00048170020431600207502002060020020B7
:1058E000002400250026002752E02A480069401CB9
:1058F00028490861FF20FEF7D9FD2748008868B9CC
:105900002648007850B9264800F074F90446B4B12E
:105910000120244908852448078810E01E48008893
:1059200020B11F4800F092F9044608E01E480088A4
:10593000C01B80B21E2802DD00201A4908851648C7
:10594000008928B31948007810B30020174908705F
:10595000174890F878001249087015488078487008
:105960000D49CA8812494888124900F08DFF41F25A
:10597000FF1045EA00060E48418832460D4800F007
:1059800001FB0848B0F8C800401C0649A1F8C8004F
:10599000ABE7000008130020081B00207502002060
:1059A00043160020181F0020080000206E0200206F
:1059B00048170020F81B0020F0B504466578022D3A
:1059C00001DC0020F0BDA81EC1B2A01C00F04CF804
:1059D0000646681EA11C0A5CA81E085C02EB00209B
:1059E00087B2BE4201D10120ECE70020EAE70000C7
:1059F000024605480088801A80B2884201DB0120F7
:105A000070470020FCE700000600002030B5134678
:105A1000D51702EB5575C5F3CF040FE020F8021B34
:105A200020F8021B20F8021B20F8021B20F8021BA2
:105A300020F8021B20F8021B20F8021B231EA4F1F1
:105A40000105ACB2EAD11346D51702EB5575ED103E
:105A5000A2EBC505ACB201E020F8021B231EA4F1A5
:105A60000105ACB2F8D130BD70B502460D4600213B
:105A7000FF23FF2409E012F8010B80EA0301074825
:105A8000405C80EA04030648445C281EA5F1010638
:105A9000F5B2F0D104EB032080B270BD328400086F
:105AA0003285000870B505460C461646B4F5F07F01
:105AB00005DA324621462846FBF71EFD70BDA4F5E7
:105AC000F07084B2782C05DA324621462846FBF77E
:105AD000D9FCF3E7A4F1780084B2B4F5C87F05DA05
