:020000040800F2
:100000006804002045010008990400085D04000808
:10001000950400088D010008D707000800000000C3
:10002000000000000000000000000000BD04000807
:1000300091010008000000009B040008A9050008C9
:100040005F0100085F0100085F0100085F01000810
:100050005F0100085F010008950100085F010008CA
:10006000E901000839020008890200085F01000860
:100070005F0100085F0100085F0100085F010008E0
:100080005F0100085F0100085F0100085F010008D0
:100090005F0100085F0100085F0100085F010008C0
:1000A0005F0100085F0100085F0100085F010008B0
:1000B0005F0100080D0600085F0100085F010008ED
:1000C0005F0100085F0100085F0100085F01000890
:1000D0005F01000855060008A10600085F0100083E
:1000E0005F0100085F0100085F0100085F01000870
:1000F0005F0100085F0100085F0100085F01000860
:100100005F0100085F0100085F0100085F0100084F
:100110005F0100085F0100085F0100085F0100083F
:100120005F0100085F0100085F0100085F0100082F
:10013000DFF80CD000F018F800480047610800080C
:10014000680400200648804706480047FEE7FEE7AF
:10015000FEE7FEE7FEE7FEE7FEE7FEE7FEE7FEE777
:10016000AD05000831010008064C074D06E0E068C7
:1001700040F0010394E8070098471034AC42F6D3EE
:10018000FFF7DAFF6C0800088C08000800BFFEE7E4
:100190007047000010B5012000F0A4F801281DD11F
:1001A00000F09AF80A2000F027FB01210C4800F02B
:1001B00038F901280BD101210A4800F03BF9C0F1C0
:1001C0000100C4B222460121064800F042F900BFF6
:1001D0000121034800F025F90128F9D010BD0000E5
:1001E000000801400010014010B5042000F07AF82A
:1001F000E8B1042000F070F80A2000F0FDFA0421B4
:100200000B4800F00EF958B904210A4800F012F921
:10021000C0F10100C4B222460421064800F019F9D9
:1002200000BF0421024800F0FCF80028F9D010BDFE
:10023000001801400010014010B5082000F052F8ED
:10024000E8B1082000F048F80A2000F0D5FA0821AB
:100250000B4800F0E6F858B908210A4800F0EAF81F
:10026000C0F10100C4B222460821064800F0F1F8AE
:1002700000BF0821024800F0D4F80028F9D010BDD2
:10028000001801400010014010B5102000F02AF8BD
:10029000E8B1102000F020F80A2000F0ADFA10219B
:1002A0000B4800F0BEF858B910210A4800F0C2F817
:1002B000C0F10100C4B222461021064800F0C9F87E
:1002C00000BF1021024800F0ACF80028F9D010BDA2
:1002D000001801400010014001490860704700000B
:1002E00014040140014600200022074B1B6803EA6A
:1002F0000102054B14331B680B4013B10AB10120F6
:1003000000E0002070470000000401402DE9F041AA
:10031000024600250026002000230024002791F833
:1003200003C00CF00F0591F803C00CF0100CBCF1E9
:10033000000F03D091F802C04CEA050591F800C007
:10034000BCF1000F31D0146800202BE04FF0010CFD
:100350000CFA00F3B1F800C00CEA03069E4220D16B
:1003600083004FF00F0C0CFA03F7BC4305FA03FCB3
:100370004CEA040491F803C0BCF1280F06D14FF0F9
:10038000010C0CFA00FCC2F814C00AE091F803C09A
:10039000BCF1480F05D14FF0010C0CFA00FCC2F87B
:1003A00010C0401C0828D1D31460B1F800C0BCF1C3
:1003B000FF0F34DD546800202EE000F1080C4FF0F0
:1003C000010808FA0CF3B1F800C00CEA03069E42DB
:1003D00021D183004FF00F0C0CFA03F7BC4305FA50
:1003E00003FC4CEA040491F803C0BCF1280F05D1CA
:1003F00000F1080C08FA0CF8C2F8148091F803C058
:10040000BCF1480F07D100F1080C4FF0010808FAC1
:100410000CF8C2F81080401C0828CED35460BDE808
:10042000F0810246002093680B400BB1012000E0F0
:100430000020704702460020D3680B400BB101201A
:1004400000E0002070474161704701617047C16062
:1004500070470AB1016100E04161704700BFFEE7EB
:1004600008B50121102000F019F8FF20ADF80000B8
:1004700010208DF8030003208DF80200694604481F
:10048000FFF744FF4FF6FF710148FFF7DEFF08BD9D
:100490000010014000BFFEE77047704729B1064ACF
:1004A00092690243044B9A6104E0034A92698243D1
:1004B000014B9A617047000000100240704710B570
:1004C00000F002F810BD00000CB500200190009073
:1004D0003348006840F480303149086000BF30483C
:1004E000006800F4003000900198401C01900098D2
:1004F00018B90198B0F5A06FF1D12948006800F44F
:10050000003010B10120009001E000200090009820
:10051000012843D12348006840F0100021490860B9
:100520000846006820F0030008600846006840F0B4
:10053000020008601A484068194948600846406847
:1005400048600846406840F480604860084640685B
:1005500020F47C1048600846406840F4E810486089
:100560000846006840F08070086000BF0C480068D2
:1005700000F000700028F9D00948406820F003001E
:10058000074948600846406840F00200486000BFE4
:100590000348406800F00C000828F9D10CBD0000A9
:1005A00000100240002002407047000010B51348C0
:1005B000006840F001001149086008464068104991
:1005C00008400E494860084600680E4908400B493B
:1005D00008600846006820F48020086008464068EB
:1005E00020F4FE0048604FF41F008860FFF767FFAB
:1005F0004FF000600449086010BD00000010024088
:100600000000FFF8FFFFF6FE08ED00E010B5012145
:100610000B4800F01BF80B4802780078401C094B8F
:10062000187001209040C04381B20748FFF70FFFC8
:1006300004480078082802D100200249087010BD43
:10064000000400400000002000100140CA43028264
:100650007047000010B540210F4800F073F840F2D9
:1006600025510D4800F084F8A0B10B4800F0AAF81D
:100670000A49087008460078401C0870084601784E
:10068000054800F0A4F800BF8021034800F063F89B
:100690000028F9D010BD0000003801400100002002
:1006A00010B54021214800F04DF840F225511F4877
:1006B00000F05EF8002838D01C4800F083F81C4990
:1006C0000870084601781B4802780078401C194BD6
:1006D0001870194840F822101548007828BB0821E6
:1006E0001648FFF7B2FE16E0154802780078401C65
:1006F000134B1870104830F8220081B20B4800F0FC
:1007000066F800BF8021094800F025F80028F9D0DC
:10071000012000F071F80A480078064909788842FB
:10072000E2DB08210548FFF78EFE10BD00440040C3
:1007300002000020030000201800002000200140DB
:100740000400002001F40072B2F5007F00D100BF68
:10075000CA430280704702460020B1F5007F00D1F5
:1007600000BF13880B400BB1012000E00020704750
:1007700070B50246002400230025002040F66A16CA
:10078000B14200D100BFC1F3421501F01F030126A1
:1007900006FA03F3012D02D19689334006E0022DBB
:1007A00002D1168A334001E0968A33400C120126AA
:1007B00006FA04F41688344013B10CB1012000E0AD
:1007C000002070BD01468888C0F308007047C1F35F
:1007D00008028280704700BFFEE702E008C8121FCF
:1007E00008C1002AFAD170477047002001E001C11A
:1007F000121F002AFBD17047014642F228324A43B9
:100800004FF0E0235A6101221A6100229A6100BF71
:100810004FF0E022106900F001021AB100F48032BA
:10082000002AF5D000224FF0E0231A619A61704748
:1008300010B5002400BF0BE00748005DC04381B243
:100840000648FFF704FE4FF47A70FFF7D5FF641CEB
:10085000102CF1DB10BD000005000020001001404D
:10086000FFF7FEFD01E0FFF7E3FFFCE78C0800085F
:100870000000002018000000DA070008A4080008A3
:100880001800002050040000EA07000800000000E3
:10089000003F065B4F666D7D077F6F777C395E7921
:0408A00071000000E3
:0400000508000131BD
:00000001FF
